:020000040800F2
:1000000000500020A90A0008450A00084B0A000811
:10001000510A0008570A00085D0A000800000000A5
:10002000000000000000000000000000C1460008C1
:10003000630A000800000000A14800086F0A0008D9
:10004000F10A0008F10A0008F10A0008F10A0008A4
:10005000F10A0008F10A0008F10A0008F10A000894
:10006000F10A0008F10A0008F10A0008F10A000884
:10007000F10A0008890A0008F10A0008F10A0008DC
:10008000F10A0008F10A0008F10A0008F10A000864
:10009000F10A0008F10A0008F10A0008F10A000854
:1000A000F10A0008F10A0008F10A0008F10A000844
:1000B000F10A0008F10A0008F10A0008F10A000834
:1000C000F10A0008F10A0008F10A0008F10A000824
:1000D000F10A0008F10A0008F10A0008F10A000814
:1000E000F10A0008F10A0008F10A00080000000007
:1000F0000000000000000000000000000000000000
:0C01000000000000000000005FF808F1A3
:1001100010B5054C237833B9044B13B10448AFF341
:1001200000800123237010BD840000200000000027
:10013000104E000808B5034B1BB103490348AFF349
:10014000008008BD0000000088000020104E00085C
:1001500080B582B000AF78600B467B8013467B7021
:100160007A787B881946786801F02FF900BF083744
:10017000BD4680BD80B582B000AF78600B467B8005
:100180007B881946786801F009F903461846083754
:10019000BD4680BD80B483B000AF00237B602BE000
:1001A00000233B6022E0194A7B689B001A443B68AD
:1001B000134400221A70164A7B689B001A443B685D
:1001C000134400221A70134A7B689B001A443B6850
:1001D000134400221A70104A7B689B001A443B6843
:1001E000134400221A703B6801333B603B68032BC9
:1001F000D9DD7B6801337B607B68012BD0DD00BFDC
:1002000000BF0C37BD4680BC704700BFC01900203E
:10021000C8190020B0190020B819002080B584B09A
:1002200000AF786039600023FB730BE0FB7B454A2D
:1002300032F81330012219464348FFF789FFFB7B50
:100240000133FB73FB7B032BF0D93E4A3B6832F84A
:100250001330002219463C48FFF77AFF3B4A7B687F
:100260009B001A443B6813441978394A7B689B0009
:100270001A443B6813440A461A70364A7B6832F8BF
:10028000133019463048FFF775FF034619462F4AC9
:100290007B689B001A443B6813440A461A702B4A39
:1002A0007B689B001A443B6813441A7828497B6892
:1002B0009B0019443B680B441B789A423DD1264A67
:1002C0007B689B001A443B6813441978234A7B6877
:1002D0009B001A443B6813440A461A701B4A7B6809
:1002E0009B001A443B68134419781B4A7B689B00A7
:1002F0001A443B6813440A461A70174A7B689B00ED
:100300001A443B6813441B78002B16D1134A7B68B0
:100310009B001A443B6813441B78012B0DD13A68AB
:1003200013465B0013449B0013447A68342101FB9D
:1003300002F213440A4A134400E00023184610371F
:10034000BD4680BD6800002000080140C0190020A3
:10035000C819002070000020B0190020B819002032
:100360000000002080B500AF00F0C4FB00F04AF8A8
:1003700000F0FAF800F0DAF800F084F800F0ACF8D9
:10038000FFF708FF134800F0EBF901F009FE124AED
:100390000D210A2001F042FF0346104A1360104A63
:1003A0000021104801F062FE03460F4A13600F4A15
:1003B00000210F4801F05AFE03460E4A13600E4A10
:1003C00000210E4801F052FE03460D4A136001F071
:1003D00019FEFEE7181A0020EC4E0008A81A0020AB
:1003E000804E00083D060008D0190020A44E0008E9
:1003F00079060008A41A0020C84E0008D10600089B
:100400005C1A002080B590B000AF07F118032822D5
:100410000021184604F0F4FC3B1D00221A605A60CB
:100420009A60DA601A610223BB610123BB62102368
:10043000FB6202237B630023BB634FF40023FB6357
:1004400007F11803184600F0D9FF0346002B01D02E
:1004500000F06CF90F237B600223BB600023FB607C
:1004600000233B6100237B613B1D0021184601F006
:1004700045FA0346002B01D000F058F900BF403781
:10048000BD4680BD80B500AF114B124A1A60104BBB
:100490004FF416525A600E4B00229A600C4B002209
:1004A000DA600B4B00221A61094B0C225A61084B8F
:1004B00000229A61064B0022DA61054801F0B8FB80
:1004C0000346002B01D000F031F900BF80BD00BF12
:1004D000601A00200038014080B500AF114B124A6D
:1004E0001A60104B4FF416525A600E4B00229A605D
:1004F0000C4B0022DA600B4B00221A61094B0C22D4
:100500005A61084B00229A61064B0022DA610548C5
:1005100001F08EFB0346002B01D000F007F900BF6D
:1005200080BD00BF181A00200048004080B582B08E
:1005300000AF0C4B5B690B4A43F001035361094B5D
:100540005B6903F001037B607B68002205210D20BD
:1005500000F009FC0D2000F022FC00BF0837BD466A
:1005600080BD00BF0010024080B588B000AF07F129
:10057000100300221A605A609A60DA602C4B9B6963
:100580002B4A43F020039361294B9B6903F020031E
:10059000FB60FB68264B9B69254A43F0040393618B
:1005A000234B9B6903F00403BB60BB68204B9B6932
:1005B0001F4A43F0080393611D4B9B6903F0080336
:1005C0007B607B6800220F211A4800F0FEFE0022AB
:1005D0000121194800F0F9FE0F233B6101237B61E3
:1005E0000123BB610223FB6107F110031946114887
:1005F00000F050FD30233B6100237B610223BB618F
:1006000007F1100319460B4800F044FD01233B613C
:1006100011237B610023BB610223FB6107F11003FF
:100620001946054800F036FD00BF2037BD4680BDA5
:100630000010024000080140000C014080B582B06B
:1006400000AF78600A4B1B78012BFBD100220121FF
:10065000084800F0BAFE6E2001F0B2FD012201212F
:10066000044800F0B2FE024B00221A70EAE700BF15
:10067000A0000020000C014080B5CAB000AFC7F850
:100680008C00114B186807F194010023002201F03F
:10069000BFFE0346002BF4D13B4607F194021146FE
:1006A000184600F06BF83A4607F1A4031146812280
:1006B000184604F097FB07F1A403184600F0CAF8A7
:1006C000024B01221A70DCE7A81A0020A0000020CB
:1006D00080B584B000AF78600023FB731CE000237A
:1006E000BB7313E0FB7BBA7B11461846FFF796FD00
:1006F000B860BB68002B06D00B4B186800230122A2
:10070000B96801F011FEBB7B0133BB73BB7B032BCC
:10071000E8D9FB7B0133FB73FB7B012BDFD9012085
:1007200001F04EFDD8E700BFA81A002080B400AF4A
:1007300072B600BFFEE7000080B582B000AF7860FF
:10074000064B186879687B6893F880309AB20A2360
:1007500001F0BBFA00BF0837BD4680BDA4000020F1
:1007600080B483B000AF7860034A7B68136000BF39
:100770000C37BD4680BC7047A400002080B5A4B0F3
:1007800000AF78603960002387F88C3097F88C30A0
:100790005A1CD2B287F88C2019463B681A7807F1A8
:1007A00090030B4403F8842C97F88C305A1CD2B277
:1007B00087F88C2019463B685A7807F190030B4460
:1007C00003F8842C002387F88F3015E097F88F20EA
:1007D00097F88C30591CC9B287F88C1019463B68C1
:1007E00013449A7807F190030B4403F8842C97F88C
:1007F0008F30013387F88F303B689B7A97F88F20D2
:100800009A42E3D397F88C305A1CD2B287F88C20E6
:1008100019463B68DA7A07F190030B4403F8842CFD
:1008200097F88C305A1CD2B287F88C2019463B6856
:100830001A7B07F190030B4403F8842C7B6818465D
:1008400007F10C038122194604F0CCFA786890373E
:10085000BD4680BD80B582B000AF78607868FFF794
:100860006BFF00BF0837BD4680BD000080B584B077
:1008700000AF184B9B69174A43F001039361154B76
:100880009B6903F00103BB60BB68124BDB69114A33
:1008900043F08053D3610F4BDB6903F080537B60DF
:1008A0007B6800220F216FF0010000F05CFA0A4B18
:1008B0005B68FB60FB6823F0E063FB60FB6843F070
:1008C0008063FB60044AFB68536000BF1037BD467D
:1008D00080BD00BF001002400000014080B58AB01A
:1008E00000AF786007F1180300221A605A609A601E
:1008F000DA607B681B684C4A934232D14B4B9B6950
:100900004A4A43F480439361484B9B6903F4804314
:100910007B617B69454B9B69444A43F004039361C7
:10092000424B9B6903F004033B613B694FF4007346
:10093000BB610223FB6103237B6207F118031946A5
:100940003B4800F0A7FB4FF48063BB610023FB61D1
:1009500000233B6207F118031946354800F09AFB63
:100960005DE07B681B68334A934258D12F4BDB69AB
:100970002E4A43F48023D3612C4BDB6903F480239C
:10098000FB60FB68294B9B69284A43F0080393618D
:10099000264B9B6903F00803BB60BB684FF4806380
:1009A000BB610223FB6103237B6207F11803194635
:1009B000214800F06FFB4FF40063BB610023FB6133
:1009C00000233B6207F1180319461B4800F062FB45
:1009D0001A4B1B4A1A60194B00225A60174B00220F
:1009E0009A60164B8022DA60144B00221A61134B76
:1009F00000225A61114B20229A61104B4FF4005291
:100A0000DA610E4800F0E6F90346002B01D0FFF74B
:100A10008DFE7B68094A9A63084A7B68536200BF6F
:100A20002837BD4680BD00BF00380140001002409D
:100A30000008014000480040000C0140D41900208B
:100A40003000024080B400AFFEE780B400AFFEE7A4
:100A500080B400AFFEE780B400AFFEE780B400AF23
:100A6000FEE780B400AF00BFBD4680BC704780B5D4
:100A700000AF00F085F803F0D9F90346012B01D04F
:100A800003F032FF00BF80BD80B500AF024800F028
:100A9000FBF900BF80BD00BFD419002080B400AFB7
:100AA00000BFBD4680BC70470C480D490D4A00236D
:100AB00002E0D458C4500433C4188C42F9D30A4A13
:100AC0000A4C002301E013600432A242FBD3FFF77B
:100AD000E5FF04F063F9FFF745FC704700000020D4
:100AE00084000020244F000884000020F01A002019
:100AF000FEE7000080B500AF084B1B68074A43F0D3
:100B000010031360032000F023F90F2000F008F811
:100B1000FFF7ACFE0023184680BD00BF0020024056
:100B200080B582B000AF7860124B1A68124B1B7808
:100B300019464FF47A73B3FBF1F3B2FBF3F31846A3
:100B400000F03BF90346002B01D001230EE07B6847
:100B50000F2B0AD8002279684FF0FF3000F003F91C
:100B6000064A7B681360002300E00123184608371B
:100B7000BD4680BD740000207C000020780000206D
:100B800080B400AF054B1B781A46054B1B68134415
:100B9000034A136000BFBD4680BC70477C00002044
:100BA000AC1A002080B400AF024B1B681846BD464B
:100BB00080BC7047AC1A002080B485B000AF78606C
:100BC0007B6803F00703FB600C4BDB68BB60BA6813
:100BD0004FF6FF031340BB60FB681A02BB68134368
:100BE00043F0BF6343F40033BB60044ABB68D36087
:100BF00000BF1437BD4680BC704700BF00ED00E069
:100C000080B400AF044BDB681B0A03F007031846EF
:100C1000BD4680BC704700BF00ED00E080B483B0EB
:100C200000AF0346FB7197F90730002B0BDBFB7914
:100C300003F01F02064997F907305B09012000FA0B
:100C400002F241F8232000BF0C37BD4680BC70473C
:100C500000E100E080B483B000AF03463960FB716F
:100C600097F90730002B0ADB3B68DAB20C4997F999
:100C700007301201D2B20B4483F800230AE03B682C
:100C8000DAB20849FB7903F00F03043B1201D2B238
:100C90000B441A7600BF0C37BD4680BC704700BFBE
:100CA00000E100E000ED00E080B489B000AFF86042
:100CB000B9607A60FB6803F00703FB61FB69C3F16D
:100CC0000703042B28BF0423BB61FB690433062BF5
:100CD00002D9FB69033B00E000237B614FF0FF3248
:100CE000BB6902FA03F3DA43BB681A407B699A4096
:100CF0004FF0FF317B6901FA03F3D9437B680B4066
:100D0000134318462437BD4680BC704780B582B077
:100D100000AF78607B68013BB3F1807F01D3012392
:100D20000FE00A4A7B68013B53600F214FF0FF3010
:100D3000FFF790FF054B00229A60044B07221A60D0
:100D4000002318460837BD4680BD00BF10E000E014
:100D500080B582B000AF78607868FFF72DFF00BFE4
:100D60000837BD4680BD80B586B000AF0346B96088
:100D70007A60FB7300237B61FFF742FF78617A683A
:100D8000B9687869FFF790FF024697F90F3011466E
:100D90001846FFF75FFF00BF1837BD4680BD80B51E
:100DA00082B000AF0346FB7197F907301846FFF792
:100DB00035FF00BF0837BD4680BD80B582B000AFAB
:100DC00078607868FFF7A2FF034618460837BD46EB
:100DD00080BD000080B485B000AF78600023FB6068
:100DE0007B68002B01D1012343E07B681B681A4616
:100DF000224B1344224AA2FB03231B099A007B685F
:100E00001A647B681F4ADA637B68022283F8212018
:100E10007B681B681B68FB60FB6823F47F5323F02F
:100E20003003FB607B685A687B689B681A437B6869
:100E3000DB681A437B681B691A437B685B691A434A
:100E40007B689B691A437B68DB691343FA68134329
:100E5000FB607B681B68FA681A607B6800229A63F3
:100E60007B68012283F821207B68002283F8202000
:100E7000002318461437BD4680BC7047F8FFFDBFFD
:100E8000CDCCCCCC0000024080B584B000AF7860FF
:100E90007B68DB6B1B68FB607B681B681B68BB6047
:100EA0007B681B6C04229A40FB681340002B4FD0D8
:100EB000BB6803F00403002B4AD07B681B681B68E7
:100EC00003F02003002B07D17B681B681A687B683E
:100ED0001B6822F004021A607B681B68664A934212
:100EE00029D07B681B68654A934222D07B681B68C7
:100EF000634A93421AD07B681B68624A934212D0BD
:100F00007B681B68604A93420AD07B681B685F4A13
:100F1000934202D14FF480030EE04FF080630BE068
:100F20004FF4802308E04FF4804305E04FF48063E2
:100F300002E0402300E00423554A53607B68DB6AEB
:100F4000002B00F094807B68DB6A786898478EE01D
:100F50007B681B6C02229A40FB681340002B56D022
:100F6000BB6803F00203002B51D07B681B681B6831
:100F700003F02003002B0BD17B681B681A687B6889
:100F80001B6822F00A021A607B68012283F8212084
:100F90007B681B68384A934229D07B681B68374AB4
:100FA000934222D07B681B68354A93421AD07B68F3
:100FB0001B68344A934212D07B681B68324A9342C2
:100FC0000AD07B681B68314A934202D14FF4001368
:100FD0000EE04FF000730BE04FF4003308E04FF4E5
:100FE000005305E04FF4007302E0202300E00223E9
:100FF000274A53607B68002283F820207B689B6A25
:10100000002B34D07B689B6A786898472FE07B6818
:101010001B6C08229A40FB681340002B28D0BB6849
:1010200003F00803002B23D07B681B681A687B68D9
:101030001B6822F00E021A607B681A6C7B68DB6BFF
:10104000012101FA02F25A607B6801229A637B68EF
:10105000012283F821207B68002283F820207B680E
:101060001B6B002B04D07B681B6B7868984700BF14
:1010700000BF1037BD4680BD080002401C00024082
:101080003000024044000240580002406C00024020
:101090000000024080B48BB000AF7860396000235C
:1010A0007B6200233B6269E101227B6A02FA03F35F
:1010B000FB613B681B68FA691340BB61BA69FB6955
:1010C0009A4240F058813B685B689A4A93425ED0EE
:1010D000984A934275D8984A934258D0964A934278
:1010E0006FD8964A934252D0944A934269D8944A10
:1010F00093424CD0924A934263D8924A934246D04C
:10110000904A93425DD8122B2AD8122B59D801A2AB
:1011100052F823F08F110008691100087B110008B4
:10112000BD110008C3110008C3110008C311000855
:10113000C3110008C3110008C3110008C31100083F
:10114000C3110008C3110008C3110008C31100082F
:10115000C3110008C31100087111000885110008AF
:10116000794A934213D02CE03B68DB683B6229E06C
:101170003B68DB6804333B6224E03B68DB68083390
:101180003B621FE03B68DB680C333B621AE03B6864
:101190009B68002B02D104233B6213E03B689B68F1
:1011A000012B05D108233B627B68FA691A6109E0CB
:1011B00008233B627B68FA695A6103E000233B62C3
:1011C00000E000BFBB69FF2B01D87B6801E07B68B2
:1011D00004337B61BB69FF2B02D87B6A9B0002E072
:1011E0007B6A083B9B003B617B691A680F213B6966
:1011F00001FA03F3DB431A40396A3B6901FA03F34E
:101200001A437B691A603B685B6803F08053002BCC
:1012100000F0B1804D4B9B694C4A43F00103936150
:101220004A4B9B6903F00103BB60BB68484A7B6A79
:101230009B08023352F82330FB607B6A03F0030300
:101240009B000F2202FA03F3DB43FA681340FB60B2
:101250007B68404A934213D07B683F4A93420DD04B
:101260007B683E4A934207D07B683D4A934201D156
:10127000032306E0042304E0022302E0012300E04C
:1012800000237A6A02F0030292009340FA68134343
:10129000FB602F497B6A9B080233FA6841F82320E0
:1012A0003B685B6803F48033002B06D02D4B1A6833
:1012B0002C49BB6913430B6006E02A4B1A68BB69D3
:1012C000DB43284913400B603B685B6803F4003341
:1012D000002B06D0234B5A682249BB6913434B604D
:1012E00006E0204B5A68BB69DB431E4913404B6044
:1012F0003B685B6803F48013002B06D0194B9A6897
:101300001849BB6913438B6006E0164B9A68BB69AA
:10131000DB43144913408B603B685B6803F40013A4
:10132000002B21D00F4BDA680E49BB691343CB6009
:1013300021E000BF00003210000031100000221038
:1013400000002110000012100000111000100240D7
:101350000000014000080140000C01400010014065
:1013600000140140000401400B4BDA68BB69DB4309
:1013700009491340CB607B6A01337B623B681A6882
:101380007B6A22FA03F3002B7FF48EAE00BF00BF0E
:101390002C37BD4680BC70470004014080B485B046
:1013A00000AF78600B467B807B689A687B8813402F
:1013B000002B02D00123FB7301E00023FB73FB7BB6
:1013C00018461437BD4680BC704780B483B000AF68
:1013D00078600B467B8013467B707B78002B03D0B4
:1013E0007A887B681A6103E07B881A047B681A613B
:1013F00000BF0C37BD4680BC7047000080B586B08A
:1014000000AF78607B68002B01D101236CE27B6820
:101410001B6803F00103002B00F08780924B5B6890
:1014200003F00C03042B0CD08F4B5B6803F00C0310
:10143000082B12D18C4B5B6803F48033B3F5803FEB
:101440000BD1894B1B6803F40033002B6CD07B68F5
:101450005B68002B68D1012346E27B685B68B3F5CB
:10146000803F06D1804B1B687F4A43F48033136072
:101470002EE07B685B68002B0CD17B4B1B687A4AA3
:1014800023F480331360784B1B68774A23F480235E
:1014900013601DE07B685B68B3F5A02F0CD1724B25
:1014A0001B68714A43F4802313606F4B1B686E4ABC
:1014B00043F4803313600BE06B4B1B686A4A23F4E0
:1014C00080331360684B1B68674A23F480231360E2
:1014D0007B685B68002B13D0FFF764FB386108E082
:1014E000FFF760FB02463B69D31A642B01D9032343
:1014F000FAE15D4B1B6803F40033002BF0D014E0DD
:10150000FFF750FB386108E0FFF74CFB02463B69F0
:10151000D31A642B01D90323E6E1534B1B6803F470
:101520000033002BF0D100E000BF7B681B6803F0A4
:101530000203002B63D04C4B5B6803F00C03002BC1
:101540000BD0494B5B6803F00C03082B1CD1464BB6
:101550005B6803F48033002B16D1434B1B6803F008
:101560000203002B05D07B681B69012B01D00123EE
:10157000BAE13D4B1B6823F0F8027B685B69DB0036
:10158000394913430B603AE07B681B69002B20D07C
:10159000364B01221A60FFF705FB386108E0FFF7C0
:1015A00001FB02463B69D31A022B01D903239BE1BD
:1015B0002D4B1B6803F00203002BF0D02A4B1B6855
:1015C00023F0F8027B685B69DB00274913430B605B
:1015D00015E0264B00221A60FFF7E4FA386108E0B4
:1015E000FFF7E0FA02463B69D31A022B01D9032325
:1015F0007AE11D4B1B6803F00203002BF0D17B68DE
:101600001B6803F00803002B3AD07B689B69002B12
:1016100019D0174B01221A60FFF7C4FA386108E0AD
:10162000FFF7C0FA02463B69D31A022B01D9032304
:101630005AE10D4B5B6A03F00203002BF0D001204E
:1016400000F0D8FA1CE00A4B00221A60FFF7AAFA51
:1016500038610FE0FFF7A6FA02463B69D31A022B66
:1016600008D9032340E100BF0010024000004242BD
:10167000800442429E4B5B6A03F00203002BE9D1D7
:101680007B681B6803F00403002B00F0A680002396
:10169000FB75974BDB6903F08053002B0DD1944B06
:1016A000DB69934A43F08053D361914BDB6903F0CC
:1016B0008053BB60BB680123FB758E4B1B6803F432
:1016C0008073002B18D18B4B1B688A4A43F48073BC
:1016D0001360FFF767FA386108E0FFF763FA024624
:1016E0003B69D31A642B01D90323FDE0814B1B68AE
:1016F00003F48073002BF0D07B68DB68012B06D1EC
:101700007B4B1B6A7A4A43F0010313622DE07B682E
:10171000DB68002B0CD1764B1B6A754A23F0010362
:101720001362734B1B6A724A23F0040313621CE0BA
:101730007B68DB68052B0CD16D4B1B6A6C4A43F050
:10174000040313626A4B1B6A694A43F00103136284
:101750000BE0674B1B6A664A23F001031362644B7C
:101760001B6A634A23F0040313627B68DB68002B67
:1017700015D0FFF717FA38610AE0FFF713FA0246AF
:101780003B69D31A41F28832934201D90323ABE07B
:10179000574B1B6A03F00203002BEED014E0FFF757
:1017A00001FA38610AE0FFF7FDF902463B69D31AF6
:1017B00041F28832934201D9032395E04C4B1B6AD6
:1017C00003F00203002BEED1FB7D012B05D1484B2A
:1017D000DB69474A23F08053D3617B68DB69002BC8
:1017E00000F08180424B5B6803F00C03082B61D052
:1017F0007B68DB69022B46D13F4B00221A60FFF762
:10180000D1F9386108E0FFF7CDF902463B69D31AF8
:10181000022B01D9032367E0354B1B6803F00073EB
:10182000002BF0D17B681B6AB3F5803F08D1304BA9
:101830005B6823F400327B689B682D4913434B603F
:101840002B4B5B6823F474127B68196A7B685B6AB4
:101850000B43274913434B60274B01221A60FFF7C4
:10186000A1F9386108E0FFF79DF902463B69D31AF8
:10187000022B01D9032337E01D4B1B6803F00073D3
:10188000002BF0D02FE01C4B00221A60FFF78AF9E2
:10189000386108E0FFF786F902463B69D31A022B4C
:1018A00001D9032320E0124B1B6803F00073002BC7
:1018B000F0D118E07B68DB69012B01D1012313E033
:1018C0000B4B5B68FB60FB6803F480327B681B6A30
:1018D0009A4206D1FB6803F470127B685B6A9A42F5
:1018E00001D0012300E0002318461837BD4680BD13
:1018F00000100240007000406000424280B584B099
:1019000000AF786039607B68002B01D10123D0E003
:101910006A4B1B6803F007033A689A4210D9674B79
:101920001B6823F0070265493B6813430B60634B58
:101930001B6803F007033A689A4201D00123B8E01C
:101940007B681B6803F00203002B20D07B681B68B8
:1019500003F00403002B05D0594B5B68584A43F44D
:10196000E06353607B681B6803F00803002B05D01D
:10197000534B5B68524A43F460535360504B5B686F
:1019800023F0F0027B689B684D4913434B607B68F2
:101990001B6803F00103002B40D07B685B68012BC0
:1019A00007D1474B1B6803F40033002B15D10123EB
:1019B0007FE07B685B68022B07D1414B1B6803F01B
:1019C0000073002B09D1012373E03D4B1B6803F02A
:1019D0000203002B01D101236BE0394B5B6823F03C
:1019E00003027B685B68364913434B60FFF7DAF804
:1019F000F8600AE0FFF7D6F80246FB68D31A41F216
:101A00008832934201D9032353E02D4B5B6803F0E6
:101A10000C027B685B689B009A42EBD1274B1B68EA
:101A200003F007033A689A4210D2244B1B6823F054
:101A3000070222493B6813430B60204B1B6803F0ED
:101A400007033A689A4201D0012332E07B681B68A1
:101A500003F00403002B08D0194B5B6823F4E06209
:101A60007B68DB68164913434B607B681B6803F097
:101A70000803002B09D0124B5B6823F460527B688B
:101A80001B69DB000E4913434B6000F021F802464E
:101A90000B4B5B681B0903F00F030A49CB5C22FA6E
:101AA00003F3094A1360094B1B681846FFF738F81F
:101AB000002318461037BD4680BD00BF00200240FD
:101AC00000100240044F000874000020780000203D
:101AD00090B48AB000AF2A4B3C1D0FCB84E80F00B6
:101AE00040F201233B800023FB610023BB61002304
:101AF0007B6200237B6100233B62224B5B68FB61BE
:101B0000FB6903F00C03042B02D0082B03D02DE05B
:101B10001D4B3B622DE0FB699B0C03F00F0307F1AB
:101B20002802134413F8243C7B61FB6903F48033DF
:101B3000002B13D0134B5B685B0C03F0010307F120
:101B40002802134413F8283CBB617B690E4A02FB50
:101B500003F2BB69B2FBF3F37B6204E07B690B4ADF
:101B600002FB03F37B627B6A3B6202E0064B3B6253
:101B700000BF3B6A18462837BD4690BC704700BF7F
:101B8000584E00080010024000127A0000093D0083
:101B900080B400AF024B1B681846BD4680BC70473E
:101BA0007400002080B500AFFFF7F2FF0246054B3E
:101BB0005B681B0A03F007030349CB5C22FA03F3BB
:101BC000184680BD00100240144F000880B500AFD9
:101BD000FFF7DEFF0246054B5B68DB0A03F00703F5
:101BE0000349CB5C22FA03F3184680BD0010024083
:101BF000144F000880B485B000AF78600A4B1B68B2
:101C00000A4AA2FB03235B0A7A6802FB03F3FB6028
:101C100000BFFB685A1EFA60002BF9D100BF00BF5D
:101C20001437BD4680BC704774000020D34D62104D
:101C300080B582B000AF78607B68002B01D10123B2
:101C40003FE07B6893F83D30DBB2002B06D17B6828
:101C5000002283F83C207868FEF740FE7B6824224F
:101C600083F83D207B681B68DA687B681B6822F478
:101C70000052DA60786800F005F97B681B681A6921
:101C80007B681B6822F490421A617B681B685A6962
:101C90007B681B6822F02A025A617B681B68DA683D
:101CA0007B681B6842F40052DA607B6800221A6489
:101CB0007B68202283F83D207B68202283F83E2029
:101CC000002318460837BD4680BD80B58AB002AFF4
:101CD000F860B9603B601346FB8000237B61FB68C2
:101CE00093F83D30DBB2202B7CD1BB68002B02D0B7
:101CF000FB88002B01D1012375E0FB6893F83C3091
:101D0000012B01D102236EE0FB68012283F83C2005
:101D1000FB6800221A64FB68212283F83D20FEF74D
:101D200041FF7861FB68FA889A84FB68FA88DA8454
:101D3000FB689B68B3F5805F08D1FB681B69002BCB
:101D400004D10023FB61BB68BB6103E0BB68FB619E
:101D50000023BB61FB68002283F83C202AE03B683B
:101D600000937B6900228021F86800F040F8034668
:101D7000002B01D0032336E0FB69002B0BD1BB699C
:101D80001B881A46FB681B68C2F308025A60BB69CD
:101D90000233BB6107E0FB691A78FB681B685A6075
:101DA000FB690133FB61FB68DB8C9BB2013B9AB2A0
:101DB000FB68DA84FB68DB8C9BB2002BCFD13B68DD
:101DC00000937B6900224021F86800F010F8034678
:101DD000002B01D0032306E0FB68202283F83D207E
:101DE000002300E0022318462037BD4680BD80B5A1
:101DF00084B000AFF860B9603B601346FB712CE023
:101E0000BB69B3F1FF3F28D0BB69002B07D0FEF7B9
:101E1000C9FE02463B68D31ABA699A421DD2FB68D2
:101E20001B68DA68FB681B6822F4D072DA60FB6812
:101E30001B685A69FB681B6822F001025A61FB6843
:101E4000202283F83D20FB68202283F83E20FB6897
:101E5000002283F83C2003230FE0FB681B681A680C
:101E6000BB681340BA689A420CBF01230023DBB25F
:101E70001A46FB799A42C3D0002318461037BD4654
:101E800080BD000080B584B000AF78607B681B68BF
:101E90001B6923F440517B68DA687B681B680A433E
:101EA0001A617B689A687B681B691A437B685B6967
:101EB0001343BB607B681B68DB6823F4B05323F0DB
:101EC0000C037A681268B9680B43D3607B681B689F
:101ED0005B6923F440717B689A697B681B680A43DD
:101EE0005A617B681B682C4A934203D1FFF76EFE50
:101EF000F86002E0FFF756FEF860FA6813469B00B0
:101F000013449A001A447B685B689B00B2FBF3F3AE
:101F1000224AA2FB03235B091901FA6813469B00BE
:101F200013449A001A447B685B689B00B2FBF3F28F
:101F30001A4BA3FB02035B09642000FB03F3D31AD3
:101F40001B013233154AA2FB03235B0903F0F003A4
:101F50001944FA6813469B0013449A001A447B689C
:101F60005B689B00B2FBF3F20C4BA3FB02035B0923
:101F7000642000FB03F3D31A1B013233074AA2FB90
:101F800003235B0903F00F027B681B680A449A6015
:101F900000BF1037BD4680BD003801401F85EB51A2
:101FA00080B485B000AFEFF30583BB60BB68002B46
:101FB0000FD1EFF310837B607B68002B09D1104BAE
:101FC0001B68022B09D1EFF311833B603B68002BA8
:101FD00003D06FF00503FB600CE0094B1B68002B7E
:101FE00005D1074B01221A600023FB6002E04FF08D
:101FF000FF33FB60FB6818461437BD4680BC704752
:10200000A800002080B584B000AFEFF30583BB606B
:10201000BB68002B0FD1EFF310837B607B68002B34
:1020200009D1114B1B68022B09D1EFF311833B60DF
:102030003B68002B03D06FF00503FB600EE00A4BFA
:102040001B68012B07D1084B02221A6001F0A2FA8B
:102050000023FB6002E04FF0FF33FB60FB68184693
:102060001037BD4680BD00BFA800002080B592B0EB
:1020700004AFF860B9607A6000237B61EFF30583F9
:102080007B627B6A002B40F09480EFF310833B620D
:102090003B6A002B40F08D80484B1B68022B06D119
:1020A000EFF31183FB61FB69002B40F08280FB683A
:1020B000002B7ED080233B631823FB620023FB763A
:1020C00007F11B037B634FF0FF33BB627B68002B80
:1020D00045D07B681B68002B02D07B681B687B6344
:1020E0007B689B69002B02D07B689B69FB62FB6A63
:1020F000002B08D0FB6A382B05D87B685B6803F09F
:102100000103002B01D0002354E07B685B69002BA6
:1021100003D07B685B699B083B637B689B68002BF3
:102120000ED07B68DB685B2B0AD97B681B69002BB0
:1021300006D07B685B69002B02D00123BB6210E0F4
:102140007B689B68002B0CD17B68DB68002B08D177
:102150007B681B69002B04D10023BB6201E00023D4
:10216000BB62BB6A012B10D17B681B697A689268DD
:1021700002920193FB6A0093BB683A6B796BF86833
:1021800001F03CF803467B6113E0BB6A002B10D1E1
:102190003B6B9AB207F114030193FB6A0093BB688F
:1021A000796BF86801F086F80346012B01D0002313
:1021B0007B617B6918463837BD4680BDA80000208A
:1021C00080B586B000AF7860EFF305833B613B6973
:1021D000002B0FD1EFF31083FB60FB68002B09D1BC
:1021E0000D4B1B68022B09D1EFF31183BB60BB6859
:1021F000002B03D06FF005037B6107E000237B61B8
:102200007B68002B02D0786801F090F97B69184652
:102210001837BD4680BD00BFA800002080B58CB037
:1022200002AFF860B9607A6000237B62EFF3058348
:10223000BB61BB69002B6FD1EFF310837B617B69BE
:10224000002B69D1374B1B68022B05D1EFF31183AB
:102250003B613B69002B5FD1FB68002B5CD0BB6806
:10226000002B59D04FF0FF333B627B68002B29D005
:102270007B689B68002B12D07B68DB684F2B0ED9E4
:102280007B681B69002B0AD07B685A69FB68B968B8
:1022900001FB03F39A4202D301233B6214E07B6803
:1022A0009B68002B10D17B68DB68002B0CD17B680E
:1022B0001B69002B08D17B685B69002B04D10023CC
:1022C0003B6201E000233B623B6A012B0BD17B6840
:1022D0001A697B689B6800210091B968F86800F072
:1022E00053FA786208E03B6A002B05D10022B968F6
:1022F000F86800F0C0FA78627B6A002B0CD07B682B
:10230000002B03D07B681B68FB6101E00023FB61AD
:10231000F969786A00F016FF7B6A18462837BD46CF
:1023200080BD00BFA800002080B58AB000AFF86073
:10233000B9603B601346FB71FB683B6200237B6224
:10234000EFF30583FB61FB69002B0FD1EFF31083E3
:10235000BB61BB69002B09D12B4B1B68022B2ED113
:10236000EFF311837B617B69002B28D03B6A002B44
:1023700005D0BB68002B02D03B68002B03D06FF068
:1023800003037B6239E000233B6107F11002002365
:10239000B968386A00F0CEFB0346012B03D06FF01A
:1023A00002037B6229E03B69002B26D0174B4FF0DC
:1023B00080521A60BFF34F8FBFF36F8F1DE03B6AEF
:1023C000002B02D0BB68002B03D16FF003037B62AC
:1023D00014E000233A68B968386A00F0ADFA0346A1
:1023E000012B0BD03B68002B03D06FF001037B6205
:1023F00004E06FF002037B6200E000BF7B6A1846D6
:102400002837BD4680BD00BFA800002004ED00E0D5
:1024100080B58AB000AFF860B9607A603B60FB6855
:102420003B6200237B62EFF30583FB61FB69002BBA
:102430000FD1EFF31083BB61BB69002B09D12B4B8C
:102440001B68022B2ED1EFF311837B617B69002B7C
:1024500028D03B6A002B05D0BB68002B02D03B681C
:10246000002B03D06FF003037B6238E000233B6155
:1024700007F110031A46B968386A00F0D3FC034626
:10248000012B03D06FF002037B6228E03B69002B35
:1024900025D0174B4FF080521A60BFF34F8FBFF318
:1024A0006F8F1CE03B6A002B02D0BB68002B03D16E
:1024B0006FF003037B6213E03A68B968386A00F092
:1024C000D1FB0346012B0BD03B68002B03D06FF0F0
:1024D00001037B6204E06FF002037B6200E000BF57
:1024E0007B6A18462837BD4680BD00BFA800002083
:1024F00004ED00E080B485B000AFF860B9607A60A8
:10250000FB68064A1A60BB68054A1A607B6880222D
:102510001A6000BF1437BD4680BC7047AC00002075
:102520000801002080B485B000AFF860B9607A601F
:10253000FB68074A1A60BB68064A1A607B684FF45A
:1025400080721A6000BF1437BD4680BC704700BF60
:10255000080300206403002080B483B000AF7860DB
:102560007B6803F108027B685A607B684FF0FF329A
:102570009A607B6803F108027B68DA607B6803F18C
:1025800008027B681A617B6800221A6000BF0C3762
:10259000BD4680BC704780B483B000AF78607B6874
:1025A00000221A6100BF0C37BD4680BC704780B462
:1025B00085B000AF786039607B685B68FB603B6822
:1025C000FA685A60FB689A683B689A60FB689B6887
:1025D0003A685A60FB683A689A603B687A681A61A0
:1025E0007B681B685A1C7B681A6000BF1437BD46A5
:1025F00080BC704780B485B000AF786039603B68BC
:102600001B68BB60BB68B3F1FF3F03D17B681B69EC
:10261000FB600CE07B680833FB6002E0FB685B68F2
:10262000FB60FB685B681B68BA689A42F6D2FB687D
:102630005A683B685A603B685B683A689A603B68D6
:10264000FA689A60FB683A685A603B687A681A616F
:102650007B681B685A1C7B681A6000BF1437BD4634
:1026600080BC704780B485B000AF78607B681B6920
:10267000FB607B685B687A6892689A607B689B689D
:102680007A6852685A60FB685B687A689A4203D13C
:102690007B689A68FB685A607B6800221A61FB6855
:1026A0001B685A1EFB681A60FB681B6818461437C3
:1026B000BD4680BC7047000080B584B000AF786034
:1026C00039607B68FB60FB68002B0AD14FF0500338
:1026D00083F31188BFF36F8FBFF34F8FBB6000BFD1
:1026E000FEE702F083F8FB681A68FB68DB6BF968A9
:1026F000096C01FB03F31A44FB685A60FB68002273
:102700009A63FB681A68FB689A60FB681A68FB6842
:10271000DB6B013BF968096C01FB03F31A44FB68AE
:10272000DA60FB68FF2283F84420FB68FF2283F80D
:1027300045203B68002B14D1FB681B69002B1AD085
:10274000FB681033184601F0AFF90346002B12D096
:102750000C4B4FF080521A60BFF34F8FBFF36F8F57
:1027600009E0FB6810331846FFF7F6FEFB682433D8
:102770001846FFF7F1FE02F069F8012318461037FA
:10278000BD4680BD04ED00E080B58EB002AFF860BC
:10279000B9607A603B60FB68002B0AD14FF05003B0
:1027A00083F31188BFF36F8FBFF34F8FBB6200BFFE
:1027B000FEE73B68002B0AD14FF0500383F31188EA
:1027C000BFF36F8FBFF34F8F7B6200BFFEE77B6865
:1027D000002B02D0BB68002B01D0012300E00023B6
:1027E000002B0AD14FF0500383F31188BFF36F8F92
:1027F000BFF34F8F3B6200BFFEE77B68002B02D127
:10280000BB68002B01D1012300E00023002B0AD17B
:102810004FF0500383F31188BFF36F8FBFF34F8FD7
:10282000FB6100BFFEE750237B617B69502B0AD020
:102830004FF0500383F31188BFF36F8FBFF34F8FB7
:10284000BB6100BFFEE73B68FB62FB6A002B0DD05B
:10285000FB6A012283F8462097F83820FB6A009330
:1028600013467A68B968F86800F043F8FB6A1846BE
:102870003037BD4680BD80B58AB002AFF860B96020
:102880001346FB71FB68002B0AD14FF0500383F312
:102890001188BFF36F8FBFF34F8F3B6100BFFEE71F
:1028A000BB68002B02D10023FB6104E0FB68BA681F
:1028B00002FB03F3FB61FB695033184602F096F804
:1028C000B861BB69002B0FD0BB6950337B61BB691A
:1028D000002283F84620FA79BB69009313467A698F
:1028E000B968F86800F005F8BB6918462037BD469E
:1028F00080BD80B584B000AFF860B9607A60FB70CD
:10290000BB68002B03D1BB69BA691A6002E0BB69DE
:102910007A681A60BB69FA68DA63BB69BA681A64D4
:102920000121B869FFF7C8FEBB69FA7883F84C202B
:1029300000BF1037BD4680BD80B58EB000AFF860D7
:10294000B9607A603B6000237B63FB683B633B6B51
:10295000002B0AD14FF0500383F31188BFF36F8F20
:10296000BFF34F8FBB6200BFFEE7BB68002B03D1F4
:102970003B6B1B6C002B01D1012300E00023002BDB
:102980000AD14FF0500383F31188BFF36F8FBFF369
:102990004F8F7B6200BFFEE73B68022B03D13B6B8E
:1029A000DB6B012B01D1012300E00023002B0AD1B6
:1029B0004FF0500383F31188BFF36F8FBFF34F8F36
:1029C0003B6200BFFEE701F031FA0346002B02D163
:1029D0007B68002B01D1012300E00023002B0AD1EA
:1029E0004FF0500383F31188BFF36F8FBFF34F8F06
:1029F000FB6100BFFEE701F0F9FE3B6B9A6B3B6B9E
:102A0000DB6B9A4202D33B68022B29D13A68B96842
:102A1000386B00F087FAF8623B6B5B6A002B10D0D2
:102A20003B6B2433184601F03FF80346002B13D0CC
:102A30003F4B4FF080521A60BFF34F8FBFF36F8F41
:102A40000AE0FB6A002B07D0394B4FF080521A6026
:102A5000BFF34F8FBFF36F8F01F0F8FE012363E0E8
:102A60007B68002B03D101F0F1FE00235CE07B6B5F
:102A7000002B06D107F11403184601F079F8012361
:102A80007B6301F0E3FE00F0EBFD01F0AFFE3B6B7A
:102A900093F844305BB2B3F1FF3F03D13B6B0022AC
:102AA00083F844203B6B93F845305BB2B3F1FF3FB2
:102AB00003D13B6B002283F8452001F0C7FE3A1D8D
:102AC00007F114031146184601F068F80346002B7D
:102AD00024D1386B00F01EFB0346002B18D03B6B53
:102AE00010337A681146184600F08EFF386B00F0FC
:102AF000A9FA00F0C3FD0346002B7FF47CAF0C4B1A
:102B00004FF080521A60BFF34F8FBFF36F8F72E7A1
:102B1000386B00F097FA00F0B1FD6CE7386B00F00D
:102B200091FA00F0ABFD002318463837BD4680BD52
:102B300004ED00E080B58EB000AFF860B9607A6057
:102B40003B60FB683B633B6B002B0AD14FF05003AB
:102B500083F31188BFF36F8FBFF34F8F7B6200BF8A
:102B6000FEE7BB68002B03D13B6B1B6C002B01D134
:102B7000012300E00023002B0AD14FF0500383F320
:102B80001188BFF36F8FBFF34F8F3B6200BFFEE72B
:102B90003B68022B03D13B6BDB6B012B01D1012383
:102BA00000E00023002B0AD14FF0500383F311887B
:102BB000BFF36F8FBFF34F8FFB6100BFFEE701F0E4
:102BC000D7FEEFF311824FF0500383F31188BFF368
:102BD0006F8FBFF34F8FBA617B61BB69FB623B6B49
:102BE0009A6B3B6BDB6B9A4202D33B68022B2CD176
:102BF0003B6B93F8453087F82B303A68B968386BEF
:102C000000F090F997F92B30B3F1FF3F12D13B6BF5
:102C10005B6A002B16D03B6B2433184600F044FF50
:102C20000346002B0ED07B68002B0BD07B68012263
:102C30001A6007E097F82B300133DBB25AB23B6BD6
:102C400083F8452001237B6301E000237B63FB6A5B
:102C50003B613B6983F3118800BF7B6B18463837B3
:102C6000BD4680BD80B58CB000AFF860B9607A60B9
:102C70000023FB62FB68BB62BB6A002B0AD14FF0EA
:102C8000500383F31188BFF36F8FBFF34F8F3B6205
:102C900000BFFEE7BB68002B03D1BB6A1B6C002B97
:102CA00001D1012300E00023002B0AD14FF0500393
:102CB00083F31188BFF36F8FBFF34F8FFB6100BFAA
:102CC000FEE701F0B3F80346002B02D17B68002B2E
:102CD00001D1012300E00023002B0AD14FF0500363
:102CE00083F31188BFF36F8FBFF34F8FBB6100BFBA
:102CF000FEE701F07BFDBB6A9B6B7B627B6A002B6E
:102D00001FD0B968B86A00F077F97B6A5A1EBB6AAF
:102D10009A63BB6A1B69002B0FD0BB6A103318463D
:102D200000F0C2FE0346002B07D03D4B4FF080520F
:102D30001A60BFF34F8FBFF36F8F01F087FD012340
:102D400069E07B68002B03D101F080FD002362E085
:102D5000FB6A002B06D107F11003184600F008FFAC
:102D60000123FB6201F072FD00F07AFC01F03EFDF0
:102D7000BB6A93F844305BB2B3F1FF3F03D1BB6A47
:102D8000002283F84420BB6A93F845305BB2B3F16C
:102D9000FF3F03D1BB6A002283F8452001F056FDB6
:102DA0003A1D07F110031146184600F0F7FE0346DE
:102DB000002B23D1B86A00F097F90346002B17D0F7
:102DC000BB6A24337A681146184600F01DFEB86AC3
:102DD00000F038F900F052FC0346002B89D1104B6B
:102DE0004FF080521A60BFF34F8FBFF36F8F80E7B1
:102DF000B86A00F027F900F041FC7AE7B86A00F001
:102E000021F900F03BFCB86A00F06EF90346002B94
:102E10003FF46FAF002318463037BD4680BD00BF7A
:102E200004ED00E080B58EB000AFF860B9607A6064
:102E3000FB683B633B6B002B0AD14FF0500383F3DD
:102E40001188BFF36F8FBFF34F8F3B6200BFFEE768
:102E5000BB68002B03D13B6B1B6C002B01D1012302
:102E600000E00023002B0AD14FF0500383F31188B8
:102E7000BFF36F8FBFF34F8FFB6100BFFEE701F021
:102E800077FDEFF311824FF0500383F31188BFF306
:102E90006F8FBFF34F8FBA617B61BB69FB623B6B86
:102EA0009B6BBB62BB6A002B2FD03B6B93F844300B
:102EB00087F82730B968386B00F09EF8BB6A5A1E55
:102EC0003B6B9A6397F92730B3F1FF3F12D13B6B0D
:102ED0001B69002B16D03B6B1033184600F0E4FD45
:102EE0000346002B0ED07B68002B0BD07B680122A1
:102EF0001A6007E097F827300133DBB25AB23B6B18
:102F000083F8442001237B6301E000237B63FB6A99
:102F10003B613B6983F3118800BF7B6B18463837F0
:102F2000BD4680BD80B586B000AFF860B9607A60FC
:102F300000237B61FB689B6B3B61FB681B6C002B78
:102F40000DD1FB681B68002B4DD1FB685B681846F0
:102F500000F08AFF7861FB6800225A6043E07B68DA
:102F6000002B19D1FB689868FB681B6C1A46B9687E
:102F700001F038FFFB689A68FB681B6C1A44FB6819
:102F80009A60FB689A68FB685B689A422BD3FB687F
:102F90001A68FB689A6026E0FB68D868FB681B6CBF
:102FA0001A46B96801F01EFFFB68DA68FB681B6C03
:102FB0005B421A44FB68DA60FB68DA68FB681B68EE
:102FC0009A4207D2FB685A68FB681B6C5B421A4442
:102FD000FB68DA607B68022B05D13B69002B02D0CD
:102FE0003B69013B3B613B695A1CFB689A637B6907
:102FF00018461837BD4680BD80B582B000AF7860F6
:1030000039607B681B6C002B18D07B68DA687B68A2
:103010001B6C1A447B68DA607B68DA687B685B68E3
:103020009A4203D37B681A687B68DA607B68D96848
:103030007B681B6C1A46386801F0D4FE00BF083765
:10304000BD4680BD80B584B000AF786001F0CEFB96
:103050007B6893F84530FB7311E07B685B6A002B5B
:1030600012D07B682433184600F01EFD0346002B67
:1030700001D000F0F5FDFB7B013BDBB2FB7397F960
:103080000F30002BE9DC00E000BF7B68FF2283F8F3
:10309000452001F0DBFB01F0A9FB7B6893F844308D
:1030A000BB7311E07B681B69002B12D07B68103367
:1030B000184600F0F9FC0346002B01D000F0D0FDCB
:1030C000BB7B013BDBB2BB7397F90E30002BE9DC15
:1030D00000E000BF7B68FF2283F8442001F0B6FBCC
:1030E00000BF1037BD4680BD80B584B000AF7860AA
:1030F00001F07CFB7B689B6B002B02D10123FB6002
:1031000001E00023FB6001F0A1FBFB6818461037CB
:10311000BD4680BD80B584B000AF786001F066FB2D
:103120007B689A6B7B68DB6B9A4202D10123FB6060
:1031300001E00023FB6001F089FBFB6818461037B3
:10314000BD4680BD80B485B000AF78603960002393
:10315000FB6014E00E4AFB6852F83330002B0BD1B1
:103160000B49FB683A6841F83320094AFB68DB00E9
:1031700013447A685A6006E0FB680133FB60FB6821
:10318000072BE7D900BF00BF1437BD4680BC70478E
:10319000B01A002080B586B000AFF860B9607A60E0
:1031A000FB687B6101F022FB7B6993F844305BB2E2
:1031B000B3F1FF3F03D17B69002283F844207B6990
:1031C00093F845305BB2B3F1FF3F03D17B69002236
:1031D00083F8452001F03AFB7B699B6B002B06D1FD
:1031E0007B6924337A68B968184600F031FC786945
:1031F000FFF728FF00BF1837BD4680BD80B58EB0F1
:1032000004AFF860B9607A603B607B6B002B0AD139
:103210004FF0500383F31188BFF36F8FBFF34F8FCD
:103220003B6200BFFEE7BB6B002B0AD14FF050039F
:1032300083F31188BFF36F8FBFF34F8FFB6100BF24
:10324000FEE75C233B613B695C2B0AD04FF05003E7
:1032500083F31188BFF36F8FBFF34F8FBB6100BF44
:10326000FEE7BB6B002B1ED07B6B002B1BD0BB6B18
:103270007B627B6A7A6B1A637B6A022283F859202D
:10328000002303937B6A029307F1140301933B6BC2
:1032900000933B687A68B968F86800F050F8786A7B
:1032A00000F0D4F801E000237B617B6918462837E1
:1032B000BD4680BD80B58CB004AFF860B9603B609E
:1032C0001346FB80FB889B00184601F08FFB78615A
:1032D0007B69002B0ED05C2001F088FBF861FB6954
:1032E000002B03D0FB697A691A6305E0786901F065
:1032F00041FC01E00023FB61FB69002B17D0FB6957
:10330000002283F85920FA8800230393FB69029373
:10331000FB6A0193BB6A00933B68B968F86800F0E8
:103320000EF8F86900F092F80123BB6102E04FF05B
:10333000FF33BB61BB6918462037BD4680BD80B5F1
:1033400088B000AFF860B9607A603B603B6B186B87
:103350007B689B001A46A52101F052FD3B6B1A6B5E
:103360007B6803F18043013B9B001344BB61BB6955
:1033700023F00703BB61BB6903F00703002B0AD0EE
:103380004FF0500383F31188BFF36F8FBFF34F8F5C
:103390007B6100BFFEE70023FB6112E0BA68FB69B6
:1033A000134419783A6BFB69134434330A461A7094
:1033B000BA68FB6913441B78002B06D0FB69013304
:1033C000FB61FB690F2BE9D900E000BF3B6B0022DA
:1033D00083F84320BB6A372B01D93723BB623B6B91
:1033E000BA6ADA623B6BBA6ADA643B6B00221A652E
:1033F0003B6B04331846FFF7CEF83B6B1833184687
:10340000FFF7C9F83B6B3A6B1A61BB6AC3F138022C
:103410003B6B9A613B6B3A6B5A623B6B00225A657D
:103420003B6B002283F858203A68F968B86901F0CC
:10343000EFF802463B6B1A60FB6A002B02D0FB6A76
:103440003A6B1A6000BF2037BD4680BD80B582B0A0
:1034500000AF786001F0CAF92D4B1B6801332C4A8C
:1034600013602C4B1B68002B09D12A4A7B68136020
:10347000274B1B68012B10D100F016FC0DE0264BEA
:103480001B68002B09D1234B1B68DA6A7B68DB6A57
:103490009A4202D81F4A7B681360204B1B68013395
:1034A0001E4A13601D4B1A687B685A647B68DA6A8F
:1034B0001B4B1B689A4203D97B68DB6A184A13606E
:1034C0007B68DA6A13469B0013449B00154A1A4432
:1034D0007B68043319461046FFF769F801F0B6F926
:1034E0000D4B1B68002B0ED00A4B1B68DA6A7B68F9
:1034F000DB6A9A4207D20C4B4FF080521A60BFF33E
:103500004F8FBFF36F8F00BF0837BD4680BD00BF30
:10351000380C002064070020440C0020540C0020CC
:10352000400C00206807002004ED00E080B584B066
:1035300000AF78600023FB607B68002B17D0134B33
:103540001B68002B0AD04FF0500383F31188BFF3A0
:103550006F8FBFF34F8FBB6000BFFEE700F080F8B6
:103560000021786800F0EEFC00F088F8F860FB6855
:10357000002B07D1064B4FF080521A60BFF34F8FDC
:10358000BFF36F8F00BF1037BD4680BD600C0020B9
:1035900004ED00E080B58AB004AF0023BB600023D7
:1035A0007B603A46391D07F108031846FEF7A2FF73
:1035B00039687B68BA680292019300230093002364
:1035C0000A4621492148FFF719FE0346204A1360A5
:1035D0001F4B1B68002B02D001237B6101E00023FD
:1035E0007B617B69012B02D100F000FD78617B6972
:1035F000012B16D14FF0500383F31188BFF36F8F67
:10360000BFF34F8F3B6100BF124B4FF0FF321A6088
:10361000114B01221A60114B00221A6001F074F85C
:103620000EE07B69B3F1FF3F0AD14FF0500383F303
:103630001188BFF36F8FBFF34F8FFB6000BFFEE7B2
:1036400000BF1837BD4680BD684E0008793C0008B1
:103650005C0C0020580C0020440C00203C0C002086
:1036600080B400AF044B1B680133034A136000BFF2
:10367000BD4680BC704700BF600C002080B584B0A0
:1036800000AF0023FB600023BB60424B1B68002B94
:103690000AD14FF0500383F31188BFF36F8FBFF34C
:1036A0004F8F3B6000BFFEE701F0A0F8394B1B686D
:1036B000013B384A1360374B1B68002B62D1364BF5
:1036C0001B68002B5ED02FE0344BDB68DB68FB60AF
:1036D000FB6818331846FEF7C5FFFB68043318462D
:1036E000FEF7C0FFFB68DA6A2D4B1B689A4203D9CC
:1036F000FB68DB6A2A4A1360FB68DA6A13469B00A0
:1037000013449B00274A1A44FB68043319461046A9
:10371000FEF74DFFFB68DA6A234B1B68DB6A9A42AF
:1037200002D3224B01221A601C4B1B68002BCBD109
:10373000FB68002B01D000F055FB1D4B1B687B6024
:103740007B68002B10D000F045F80346002B02D018
:10375000164B01221A607B68013B7B607B68002B63
:10376000F1D1134B00221A60104B1B68002B09D0BB
:103770000123BB600F4B4FF080521A60BFF34F8F95
:10378000BFF36F8F01F062F8BB6818461037BD4673
:1037900080BD00BF600C0020380C0020F80B00201A
:1037A000400C002068070020640700204C0C00201B
:1037B000480C002004ED00E080B483B000AF044B5F
:1037C0001B687B607B6818460C37BD4680BC704721
:1037D0003C0C002080B586B000AF00237B61514BCC
:1037E0001B68002B40F08E804F4B1B6801333B6100
:1037F0004D4A3B6913603B69002B20D14B4B1B6842
:103800001B68002B0AD04FF0500383F31188BFF3DD
:103810006F8FBFF34F8F3B6000BFFEE7434B1B68CA
:10382000FB60434B1B68414A1360414AFB681360CD
:10383000404B1B6801333F4A136000F0D3FA3E4B04
:103840001B683A699A424ED3384B1B681B68002BA1
:1038500001D1012300E00023002B04D0364B4FF0B0
:10386000FF321A603FE0314B1B68DB68DB68BB60EE
:10387000BB685B687B603A697B689A4203D22E4AD8
:103880007B6813602FE0BB6804331846FEF7EAFE3E
:10389000BB689B6A002B04D0BB6818331846FEF740
:1038A000E1FEBB68DA6A254B1B689A4203D9BB6804
:1038B000DB6A224A1360BB68DA6A13469B00134432
:1038C0009B001F4A1A44BB68043319461046FEF792
:1038D0006EFEBB68DA6A1B4B1B68DB6A9A42B3D385
:1038E00001237B61B0E7174B1B68DA6A1449134662
:1038F0009B0013449B000B441B68012B07D9012339
:103900007B6104E0104B1B6801330F4A13600F4BBF
:103910001B68002B01D001237B617B691846183797
:10392000BD4680BD600C00203C0C0020F00B002048
:10393000F40B0020500C0020580C0020400C0020FC
:103940006807002064070020480C00204C0C002071
:1039500080B485B000AF274B1B68002B03D0264BEB
:1039600001221A6041E0244B00221A60234B1B689D
:10397000FB6010E0FB68002B0AD14FF0500383F38B
:103980001188BFF36F8FBFF34F8F7B6000BFFEE7DF
:10399000FB68013BFB601A49FA6813469B0013441D
:1039A0009B000B441B68002BE4D0FA6813469B0075
:1039B00013449B00124A1344BB60BB685B685A689F
:1039C000BB685A60BB685A68BB6808339A4204D126
:1039D000BB685B685A68BB685A60BB685B68DB6839
:1039E000084A1360054AFB68136000BF1437BD46E0
:1039F00080BC7047600C00204C0C0020400C002064
:103A0000680700206407002080B584B000AF7860AC
:103A100039607B68002B0AD14FF0500383F3118883
:103A2000BFF36F8FBFF34F8FFB6000BFFEE7074B05
:103A30001B68183319467868FEF7DCFD01213868E9
:103A400000F080FA00BF1037BD4680BD640700203B
:103A500080B586B000AFF860B9607A60FB68002B73
:103A60000AD14FF0500383F31188BFF36F8FBFF378
:103A70004F8F7B6100BFFEE70A4B1B681833194666
:103A8000F868FEF794FD7B68002B02D04FF0FF33FF
:103A9000BB607968B86800F055FA00BF1837BD46BA
:103AA00080BD00BF6407002080B586B000AF78609D
:103AB0007B68DB68DB683B613B69002B0AD14FF018
:103AC000500383F31188BFF36F8FBFF34F8FFB60F9
:103AD00000BFFEE73B6918331846FEF7C3FD1E4BD7
:103AE0001B68002B1DD13B6904331846FEF7BAFD55
:103AF0003B69DA6A194B1B689A4203D93B69DB6A56
:103B0000164A13603B69DA6A13469B0013449B0014
:103B1000134A1A443B69043319461046FEF747FD21
:103B200005E03B69183319460E48FEF740FD3B6936
:103B3000DA6A0D4B1B68DB6A9A4205D901237B6167
:103B40000A4B01221A6001E000237B617B69184661
:103B50001837BD4680BD00BF600C0020400C00201F
:103B600068070020F80B0020640700204C0C0020A0
:103B700080B483B000AF7860064B1A687B681A6027
:103B8000054B1A687B685A6000BF0C37BD4680BC85
:103B9000704700BF500C00203C0C002080B588B05E
:103BA00000AF786039607B68002B0AD14FF050037A
:103BB00083F31188BFF36F8FBFF34F8F3B6100BF5B
:103BC000FEE73B68002B0AD14FF0500383F31188C6
:103BD000BFF36F8FBFF34F8FFB6000BFFEE700F0B6
:103BE00005FE1D4B1B68BB617B685B68BA69D31A15
:103BF0007B613B681B68B3F1FF3F02D10023FB618F
:103C000023E07B681A68154B1B689A4207D07B68D3
:103C10005B68BA699A4202D30123FB6115E03B68F5
:103C20001B687A699A420BD23B681A687B69D21A80
:103C30003B681A607868FFF79BFF0023FB6104E094
:103C40003B6800221A600123FB6100F0FFFDFB6965
:103C500018462037BD4680BD3C0C0020500C00208B
:103C600080B400AF034B01221A6000BFBD4680BC88
:103C7000704700BF4C0C002080B582B000AF786068
:103C800000F052F8064B1B68012BF9D9054B4FF099
:103C900080521A60BFF34F8FBFF36F8FF0E700BF02
:103CA0006807002004ED00E080B582B000AF00237B
:103CB0007B600CE07A6813469B0013449B00124A19
:103CC00013441846FEF748FC7B6801337B607B6831
:103CD000372BEFD90D48FEF73FFC0D48FEF73CFCB3
:103CE0000C48FEF739FC0C48FEF736FC0B48FEF793
:103CF00033FC0B4B054A1A600A4B054A1A6000BF99
:103D00000837BD4680BD00BF68070020C80B0020F3
:103D1000DC0B0020F80B00200C0C0020240C0020F1
:103D2000F00B0020F40B002080B582B000AF19E04A
:103D300000F05CFD104BDB68DB687B607B68043364
:103D40001846FEF78FFC0D4B1B68013B0B4A1360B6
:103D50000B4B1B68013B0A4A136000F077FD786843
:103D600000F010F8064B1B68002BE1D100BF00BF2C
:103D70000837BD4680BD00BF0C0C0020380C002069
:103D8000200C002080B584B000AF78607B6893F889
:103D90005930002B08D17B681B6B184600F0EAFEF7
:103DA000786800F0E7FE18E07B6893F85930012B43
:103DB00003D1786800F0DEFE0FE07B6893F859309D
:103DC000022B0AD04FF0500383F31188BFF36F8F9B
:103DD000BFF34F8FFB6000BFFEE700BF1037BD464B
:103DE00080BD000080B483B000AF0E4B1B681B6821
:103DF000002B01D1012300E00023002B04D00A4B4B
:103E00004FF0FF321A6008E0064B1B68DB68DB6886
:103E10007B607B685B68044A136000BF0C37BD465B
:103E200080BC7047F00B0020580C002080B483B099
:103E300000AF0B4B1B68002B02D101237B6008E015
:103E4000084B1B68002B02D102237B6001E000239A
:103E50007B607B6818460C37BD4680BC704700BF4E
:103E6000440C0020600C002080B586B000AF786064
:103E70007B683B6100237B617B68002B56D02E4B17
:103E80001B683A699A420AD04FF0500383F31188B5
:103E9000BFF36F8FBFF34F8FFB6000BFFEE73B693F
:103EA0001B6D002B0AD14FF0500383F31188BFF331
:103EB0006F8FBFF34F8FBB6000BFFEE73B691B6D89
:103EC0005A1E3B691A653B69DA6A3B69DB6C9A42A8
:103ED0002CD03B691B6D002B28D13B69043318465D
:103EE000FEF7C0FB3B69DA6C3B69DA623B69DB6A6F
:103EF000C3F138023B699A613B69DA6A0F4B1B6870
:103F00009A4203D93B69DB6A0C4A13603B69DA6A5F
:103F100013469B0013449B00094A1A443B6904332F
:103F200019461046FEF743FB01237B617B69184667
:103F30001837BD4680BD00BF64070020400C00203C
:103F40006807002080B584B000AF78603960214BED
:103F50001B68FB60204B1B6804331846FEF782FB8E
:103F60007B68B3F1FF3F0AD13B68002B07D01A4BA7
:103F70001B68043319461948FEF719FB26E0FA6856
:103F80007B681344BB60144B1B68BA685A60BA68FC
:103F9000FB689A4209D2124B1A680F4B1B68043314
:103FA00019461046FEF726FB10E00E4B1A680A4B26
:103FB0001B68043319461046FEF71CFB0A4B1B68AE
:103FC000BA689A4202D2084ABB68136000BF103731
:103FD000BD4680BD3C0C002064070020240C00205E
:103FE000F40B0020F00B0020580C002080B58AB0A4
:103FF00004AF00237B6100F0CBFA1C4B1B68002B45
:1040000021D00023FB600023BB603A1D07F10801AB
:1040100007F10C031846FEF785FA7968BB68FA6861
:10402000029201930223009300230A46104911488B
:10403000FFF7E4F80346104A13600F4B1B68002B90
:1040400001D001237B617B69002B0AD14FF0500323
:1040500083F31188BFF36F8FBFF34F8F3B6100BFB6
:10406000FEE77B6918461837BD4680BD940C0020DA
:10407000704E000899410008980C002080B58AB065
:1040800000AFF860B9607A603B6000237B62FB6838
:10409000002B0AD14FF0500383F31188BFF36F8FC9
:1040A000BFF34F8F3B6200BFFEE71A4B1B68002B2C
:1040B0002AD0BB683B617B687B61FB68BB61BB68E6
:1040C000052B18DCFFF7B2FE0346022B09D1114B7A
:1040D000186807F1100100233A6BFEF72DFC786297
:1040E00012E00C4B186807F1100100230022FEF7C4
:1040F00023FC786208E0074B186807F110010023E1
:104100003A68FEF717FD78627B6A18462837BD4685
:1041100080BD00BF940C002080B588B002AF7860ED
:1041200039601C4B1B68DB68DB687B617B6904338F
:104130001846FEF797FA7B69DB69012B22D17B6970
:104140009A697B68D1187B683A68786900F0C8F88A
:104150000346002B16D00023009300237A68002129
:104160007869FFF78BFF38613B69002B0AD14FF06C
:10417000500383F31188BFF36F8FBFF34F8FFB6042
:1041800000BFFEE77B695B6A7869984700BF183714
:10419000BD4680BD8C0C002080B584B000AF786037
:1041A00007F10803184600F057F8F860BB68194695
:1041B000F86800F003F800F0D5F8F1E780B584B0B6
:1041C00000AF78603960FFF74BFA07F10803184633
:1041D00000F066F8F860BB68002B30D13B68002B1C
:1041E0000AD17A68FB689A4206D8FFF747FAF9685D
:1041F0007868FFF791FF24E03B68002B08D0134B51
:104200001B681B68002B0CBF01230023DBB23B6043
:104210000F4B18687A68FB68D31A3A681946FEF79C
:10422000B9FFFFF72BFA0346002B0AD1094B4FF0D9
:1042300080521A60BFF34F8FBFF36F8F01E0FFF71B
:104240001DFA00BF1037BD4680BD00BF900C002096
:10425000940C002004ED00E080B485B000AF7860DD
:104260000E4B1B681B68002B0CBF01230023DBB225
:104270001A467B681A607B681B68002B05D1074BC8
:104280001B68DB681B68FB6001E00023FB60FB68C8
:1042900018461437BD4680BC704700BF8C0C002008
:1042A00080B584B000AF7860FFF786FAF8600B4BFA
:1042B0001B68FA689A4205D200F008F97B6801226F
:1042C0001A6002E07B6800221A60044AFB681360EF
:1042D000FB6818461037BD4680BD00BF9C0C00200F
:1042E00080B586B000AFF860B9607A603B600023AB
:1042F0007B61FB68BA685A60FB68FA681A61BA6841
:104300007B689A4212D87A683B68D21AFB689B692C
:104310009A4202D301237B611BE0104B1A68FB68B1
:10432000043319461046FEF765F912E07A683B68D7
:104330009A4206D2BA683B689A4202D301237B6153
:1043400007E0074B1A68FB68043319461046FEF76E
:1043500051F97B6918461837BD4680BD900C002086
:104360008C0C002080B58EB002AF9DE07B68002BE6
:1043700018DA3B1D0433FB62FB6A002B0AD14FF0B5
:10438000500383F31188BFF36F8FBFF34F8FFB612F
:1043900000BFFEE7FB6A1B68FA6A5068FA6A926817
:1043A000114698477B68002B7DDBFB68BB62BB6ACC
:1043B0005B69002B04D0BB6A04331846FEF752F940
:1043C0003B461846FFF76CFF78627B68092B6BD879
:1043D00001A252F823F000BF014400080144000884
:1043E00001440008A94400085D4400089544000801
:1043F0000144000801440008A94400085D44000885
:10440000BA68BB6A9B69D118BB687A6AB86AFFF759
:1044100067FF0346002B47D0BB6A5B6AB86A9847C0
:10442000BB6ADB69012B3FD1BA68BB6A9B691A443E
:104430000023009300230021B86AFFF71FFE3862B3
:104440003B6A002B30D14FF0500383F31188BFF348
:104450006F8FBFF34F8FBB6100BFFEE7BA68BB6AC7
:104460009A61BB6A9B69002B0AD14FF0500383F31A
:104470001188BFF36F8FBFF34F8F7B6100BFFEE7E3
:10448000BB6A9A697B6AD1187B6A7A6AB86AFFF755
:1044900027FF09E0BB6A93F82C30002B04D1B86ADF
:1044A00000F068FB00E000BF074B1B68391D0022CD
:1044B0001846FEF7D7FB0346002B7FF457AF00BF2B
:1044C00000BF3037BD4680BD940C002080B588B059
:1044D00002AF45E02C4B1B68DB681B683B612A4B35
:1044E0001B68DB68DB68FB60FB6804331846FEF77B
:1044F000B9F8FB685B6AF8689847FB68DB69012BD1
:104500002ED1FB689B693A691344BB60BA683B696A
:104510009A420ED9FB68BA685A60FB68FA681A6159
:10452000194B1A68FB68043319461046FEF762F807
:1045300016E00023009300233A690021F868FFF792
:104540009DFD78607B68002B0AD14FF0500383F308
:104550001188BFF36F8FBFF34F8F3B6000BFFEE743
:10456000094B1B681B68002BB4D1074B1B687B6190
:10457000064B1B68044A1360044A7B69136000BF42
:104580001837BD4680BD00BF8C0C0020900C002069
:1045900080B582B002AF00F029F9154B1B68002BE3
:1045A00020D11448FDF7D8FF1348FDF7D5FF134B72
:1045B000104A1A60124B104A1A6000230093114BE4
:1045C000114A10210A20FEF7DFF80346084A13605B
:1045D000074B1B68002B05D0054B1B680B49184681
:1045E000FEF7B0FD00F032F900BFBD4680BD00BF50
:1045F000940C0020640C0020780C00208C0C00200F
:10460000900C0020400D0020A00C0020784E0008E7
:1046100080B485B000AFF860B9607A60FB68043B95
:10462000FB60FB684FF080721A60FB68043BFB6024
:10463000BB6823F00102FB681A60FB68043BFB6067
:10464000084AFB681A60FB68143BFB607A68FB68E9
:104650001A60FB68203BFB60FB6818461437BD46B8
:1046600080BC70476946000880B485B000AF002365
:104670007B60124B1B68B3F1FF3F0AD04FF0500331
:1046800083F31188BFF36F8FBFF34F8FFB6000BFC1
:10469000FEE74FF0500383F31188BFF36F8FBFF332
:1046A0004F8FBB6000BF00BF7B68002BFCD000BFFA
:1046B00000BF1437BD4680BC704700BF800000209B
:1046C000074B19680868B0E8F00F80F30988BFF35A
:1046D0006F8F4FF0000080F311884EF00D0E704781
:1046E0006407002000BF00BF06480068006880F330
:1046F000088862B661B6BFF34F8FBFF36F8F00DFDC
:1047000000BF00BF08ED00E080B584B000AF324BC1
:10471000FB60FB681B78DBB27B60FB68FF221A70D2
:10472000FB681B78DBB2FB70FB78DBB203F0500355
:10473000DAB22A4B1A702A4B07221A6009E0284B7A
:104740001B68013B264A1360FB78DBB25B00DBB2DF
:10475000FB70FB78DBB203F08003802BEFD0204BA3
:104760001B68C3F10703042B0AD04FF0500383F3F7
:104770001188BFF36F8FBFF34F8FBB6000BFFEE7A1
:10478000174B1B681B02164A1360154B1B6803F47A
:10479000E063134A13607B68DAB2FB681A70114B4E
:1047A0001B68104A43F4700313600E4B1B680D4ADC
:1047B00043F07043136000F0B9F80B4B00221A600D
:1047C000FFF792FFFFF7C4F8FFF74EFF00231846EC
:1047D0001037BD4680BD00BF00E400E0900D002012
:1047E000940D002020ED00E08000002080B483B014
:1047F00000AF4FF0500383F31188BFF36F8FBFF307
:104800004F8F7B6000BF0F4B1B6801330D4A136055
:104810000C4B1B68012B0FD10B4B1B68DBB2002B21
:104820000AD04FF0500383F31188BFF36F8FBFF3AB
:104830004F8F3B6000BFFEE700BF0C37BD4680BC1A
:10484000704700BF8000002004ED00E080B483B01A
:1048500000AF114B1B68002B0AD14FF0500383F3BC
:104860001188BFF36F8FBFF34F8F7B6000BFFEE7F0
:10487000094B1B68013B084A1360074B1B68002B60
:1048800005D100233B603B6883F3118800BF00BF64
:104890000C37BD4680BC704780000020000000003F
:1048A000EFF30980BFF36F8F0D4B1A6820E9F00F0B
:1048B00010602DE908404FF0500080F31188FFF799
:1048C00047F84FF0000080F31188BDE808401968F0
:1048D0000868B0E8F00F80F30988BFF36F8F704766
:1048E0006407002000BF00BF80B582B000AF4FF06A
:1048F000500383F31188BFF36F8FBFF34F8F7B603B
:1049000000BFFEF767FF0346002B03D0064B4FF0B6
:1049100080521A6000233B603B6883F3118800BF1C
:1049200000BF0837BD4680BD04ED00E080B400AF95
:104930000A4B00221A600A4B00221A60094B1B68BE
:10494000094AA2FB03235B09084A013B1360034B9E
:1049500007221A6000BFBD4680BC704710E000E02F
:1049600018E000E0740000201F85EB5114E000E027
:1049700080B485B000AFEFF30583FB60FB680F2BBD
:1049800014D9164AFB6813441B78FB72144B1B782E
:10499000FA7A9A420AD24FF0500383F31188BFF398
:1049A0006F8FBFF34F8F7B6000BFFEE70D4B1B681F
:1049B00003F4E0620C4B1B689A420AD94FF0500393
:1049C00083F31188BFF36F8FBFF34F8F3B6000BF3E
:1049D000FEE700BF1437BD4680BC7047F0E300E03F
:1049E000900D00200CED00E0940D002080B58AB001
:1049F00000AF78600023FB61FEF732FE584B1B6866
:104A0000002B01D100F010F9564B1A687B68134057
:104A1000002B40F08E807B68002B1DD008227B6825
:104A200013447B607B6803F00703002B14D07B6882
:104A300023F0070308337B607B6803F00703002B38
:104A40000AD04FF0500383F31188BFF36F8FBFF389
:104A50004F8F7B6100BFFEE77B68002B69D0424B24
:104A60001B687A689A4264D8404B3B623F4B1B6894
:104A70007B6204E07B6A3B627B6A1B687B627B6AC9
:104A80005B687A689A4203D97B6A1B68002BF1D174
:104A9000334B1B687A6A9A424BD03B6A1B680822E8
:104AA0001344FB617B6A1A683B6A1A607B6A5A6826
:104AB0007B68D21A08235B009A421FD97A6A7B6806
:104AC0001344BB61BB6903F00703002B0AD04FF00E
:104AD000500383F31188BFF36F8FBFF34F8F3B6198
:104AE00000BFFEE77B6A5A687B68D21ABB695A60CE
:104AF0007B6A7A685A60B86900F0F8F81A4B1A684D
:104B00007B6A5B68D31A184A1360174B1A68184BF4
:104B10001B689A4203D2144B1B68154A13607B6AC8
:104B20005A68104B1B681A437B6A5A607B6A0022E2
:104B30001A60FEF7A3FDFB6903F00703002B0AD000
:104B40004FF0500383F31188BFF36F8FBFF34F8F84
:104B5000FB6000BFFEE7FB6918462837BD4680BDF5
:104B6000A0190020AC190020A419002098190020D9
:104B7000A819002080B586B000AF78607B687B61A3
:104B80007B68002B48D008235B427A6913447B6121
:104B90007B693B613B695A68214B1B681340002BC2
:104BA0000AD14FF0500383F31188BFF36F8FBFF327
:104BB0004F8FFB6000BFFEE73B691B68002B0AD0EC
:104BC0004FF0500383F31188BFF36F8FBFF34F8F04
:104BD000BB6000BFFEE73B695A68114B1B6813407E
:104BE000002B19D03B691B68002B15D13B695A6813
:104BF0000B4B1B68DB431A403B695A60FEF730FDE4
:104C00003B695A68074B1B681344064A13603869AE
:104C100000F06CF8FEF732FD00BF1837BD4680BDCE
:104C2000AC190020A419002080B485B000AF4FF467
:104C30004063BB60274BFB60FB6803F00703002B5E
:104C40000CD0FB680733FB60FB6823F00703FB60B5
:104C5000BA68FB68D31A1F4A1344BB60FB687B60C9
:104C60001D4A7B6813601C4B00225A607B68BA683F
:104C70001344FB600822FB689B1AFB60FB6823F06F
:104C80000703FB60FB68154A1360144B1B68002286
:104C90005A60124B1B6800221A607B683B603B68BD
:104CA000FA68D21A3B685A600C4B1A683B681A6063
:104CB0003B685B680A4A13603B685B68094A13609B
:104CC000094B4FF000421A6000BF1437BD4680BC4C
:104CD000704700BF980D002098190020A0190020EF
:104CE000A8190020A4190020AC19002080B485B0B8
:104CF00000AF7860274BFB6002E0FB681B68FB603D
:104D0000FB681B687A689A42F7D8FB68BB60FB684F
:104D10005B68BA6813447A689A4208D1FB685A689B
:104D20007B685B681A44FB685A60FB687B607B6841
:104D3000BB607B685B68BA681A44FB681B689A4270
:104D400018D1FB681A68144B1B689A420DD07B6817
:104D50005A68FB681B685B681A447B685A60FB688A
:104D60001B681A687B681A6008E00B4B1A687B683E
:104D70001A6003E0FB681A687B681A60FA687B684F
:104D80009A4202D0FB687A681A6000BF1437BD46A9
:104D900080BC704798190020A019002070B500262B
:104DA0000C4D0D4C641BA410A64209D100F030F844
:104DB00000260A4D0A4C641BA410A64205D170BD02
:104DC00055F8043B98470136EEE755F8043B984701
:104DD0000136F2E71C4F00081C4F00081C4F00086A
:104DE000204F00080A44914200F1FF3300D1704780
:104DF00010B511F8014B914203F8014FF9D110BDE4
:104E000003460244934200D1704703F8011BF9E7BF
:104E1000F8B500BFF8BC08BC9E467047F8B500BFA7
:084E2000F8BC08BC9E46704777
:104E28007472696767657275705F7461736B00008F
:104E380072733438355F7461736B000062746E5F2F
:104E48007461736B00000000636D645F71000000A3
:104E580002030405060708090A0B0C0D0E0F1010B3
:104E680049444C4500000000546D7220537663009D
:104E7800546D725100000000284E00080000000028
:104E88000000000000000000000000000002000018
:104E9800310000000000000000000000384E00084B
:104EA80000000000000000000000000000000000FA
:104EB80000020000310000000000000000000000B7
:104EC800444E000800000000000000000000000040
:104ED8000000000000020000310000000000000097
:104EE80000000000504E0008000000000000000014
:104EF80000000000000000000000000000000000AA
:104F08000000000001020304060708090000000071
:044F1800010203048B
:044F1C003501000853
:044F20001101000873
:104F24000105000055000000000004F29A0105008C
:104F34000155000000000004A35A010500025500B9
:104F44000000000004535A0105000355000000004E
:104F54000004029A0105000055000000000004F25C
:104F64009A0105000155000000000004A35A010540
:104F7400000255000000000004535A0105000355C7
:104F8400000000000004029A01000200040008006E
:104F9400100020000024F4001000000001000000B4
:044FA400AAAAAAAA61
:0400000508000AA93C
:00000001FF
