:020000040800F2
:1000000000500020B9080008690800086F080008BF
:10001000750800087B08000881080008000000003F
:100020000000000000000000000000008143000804
:1000300087080008000000006145000893080008D8
:100040000109000801090008010900080109000868
:100050000109000801090008010900080109000858
:100060000109000801090008010900080109000848
:100070000109000801090008010900080109000838
:100080000109000801090008010900080109000828
:100090000109000801090008010900080109000818
:1000A0000109000801090008010900080109000808
:1000B00001090008010900080109000801090008F8
:1000C00001090008010900080109000801090008E8
:1000D00001090008010900080109000801090008D8
:1000E00001090008010900080109000800000000DA
:1000F0000000000000000000000000000000000000
:0C01000000000000000000005FF808F1A3
:1001100010B5054C237833B9044B13B10448AFF341
:1001200000800123237010BD840000200000000027
:10013000D04A000808B5034B1BB103490348AFF38D
:10014000008008BD0000000088000020D04A0008A0
:1001500080B483B000AF00237B602BE000233B60C2
:1001600022E0194A7B689B001A443B681344002232
:100170001A70164A7B689B001A443B68134400229D
:100180001A70134A7B689B001A443B681344002290
:100190001A70104A7B689B001A443B681344002283
:1001A0001A703B6801333B603B68032BD9DD7B68E9
:1001B00001337B607B68012BD0DD00BF00BF0C37B3
:1001C000BD4680BC704700BFBC190020C419002088
:1001D000AC190020B419002080B584B000AF78605D
:1001E00039600023FB730BE0FB7B454A32F8133088
:1001F00000221946434800F066FEFB7B0133FB7387
:10020000FB7B032BF0D93E4A3B6832F813300122C6
:1002100019463C4800F057FE3B4A7B689B001A4455
:100220003B6813441978394A7B689B001A443B6841
:1002300013440A461A70364A7B6832F8133019465E
:10024000344800F029FE034619462F4A7B689B007C
:100250001A443B6813440A461A702B4A7B689B0079
:100260001A443B6813441A7828497B689B00194458
:100270003B680B441B789A423DD1274A7B689B0020
:100280001A443B6813441978244A7B689B001A443B
:100290003B6813440A461A701B4A7B689B001A4449
:1002A0003B68134419781C4A7B689B001A443B68DE
:1002B00013440A461A70184A7B689B001A443B682C
:1002C00013441B78002B16D1144A7B689B001A44F8
:1002D0003B6813441B78012B0DD13A6813465B0031
:1002E00013449B0013447A68342101FB02F2134447
:1002F0000B4A134400E0002318461037BD4680BD6A
:1003000068000020000C0140BC190020C419002026
:100310007000002000080140AC190020B419002032
:100320000000002080B500AF00F0ECFA00F046F8C5
:1003300000F0AAF800F07EF8FFF70AFF134800F07B
:1003400069F901F0ABFB124A0D210A2001F020FDF2
:100350000346104A1360104A0021104801F004FCC3
:1003600003460F4A13600F4A00210F4801F0FCFBBF
:1003700003460E4A13600E4A00210E4801F0F4FBBA
:1003800003460D4A136001F0BBFBFEE7DC190020B9
:10039000A84B0008D81900203C4B00083D05000878
:1003A000CC190020604B00084D050008D41900202E
:1003B000844B0008AD050008D019002080B590B02E
:1003C00000AF07F1180328220021184604F078FB3B
:1003D0003B1D00221A605A609A60DA601A6102239B
:1003E000BB610123BB621023FB6200237B6307F127
:1003F0001803184600F080FD0346002B01D000F0E2
:1004000003F90F237B600023BB600023FB60002304
:100410003B6100237B613B1D0021184600F0ECFF8F
:100420000346002B01D000F0EFF800BF4037BD4677
:1004300080BD000080B500AF114B124A1A60104B0E
:100440004FF416525A600E4B00229A600C4B002259
:10045000DA600B4B00221A61094B0C225A61084BDF
:1004600000229A61064B0022DA61054801F05EF92C
:100470000346002B01D000F0C7F800BF80BD00BFCD
:10048000DC1900200044004080B588B000AF07F1BF
:10049000100300221A605A609A60DA60244B9B694C
:1004A000234A43F020039361214B9B6903F020030F
:1004B000FB60FB681E4B9B691D4A43F0040393617C
:1004C0001B4B9B6903F00403BB60BB68184B9B6923
:1004D000174A43F008039361154B9B6903F0080327
:1004E0007B607B6800224FF47041124800F0EBFC07
:1004F0004FF470433B6101237B610223BB61022304
:10050000FB6107F1100319460A4800F041FB4FF464
:10051000C0533B6100237B610223BB6107F11003E1
:100520001946054800F034FB00BF2037BD4680BDAA
:1005300000100240000C01400008014080B582B06C
:1005400000AF7860012001F0F5FBFBE780B58CB0CF
:1005500000AF7860134B186807F1200100230022D8
:1005600001F010FD0346002B18D107F10C0307F131
:1005700020021146184600F087F80B4B1B68322109
:10058000184601F09BFB07F10C03184600F0D6F863
:10059000054B1B683121184601F090FB012001F04A
:1005A000C9FBD7E7D8190020D419002080B584B042
:1005B00000AF78600023FB731CE00023BB7313E0E3
:1005C000FB7BBA7B11461846FFF706FEB860BB6896
:1005D000002B06D00B4B186800230122B96801F0EC
:1005E0005DFCBB7B0133BB73BB7B032BE8D9FB7B7F
:1005F0000133FB73FB7B012BDFD9012001F09AFB58
:10060000D8E700BFD819002080B400AF72B600BF91
:10061000FEE7000080B582B000AF7860184A7B68C2
:100620001360174B1B68174A1A60154B1B684FF471
:1006300016525A60124B1B6800229A60104B1B68BE
:100640000022DA600E4B1B6800221A610C4B1B68FB
:100650000C225A610A4B1B6800229A61084B1B68E6
:100660000022DA61064B1B68184601F05FF803466A
:10067000002B01D0FFF7C8FF00BF0837BD4680BD83
:10068000A000002000440040B0B489B000AF786002
:1006900039603B689B7A0433DBB23B760023FB6115
:1006A000FB695A1CFA613A68127807F120010B4481
:1006B00003F8182CFB695A1CFA613A68527807F162
:1006C00020010B4403F8182C0023FB760EE0FA7E81
:1006D000FB69591CF96139680A44927807F12001D5
:1006E0000B4403F8182CFB7E0133FB763B689B7AA6
:1006F000FA7E9A42EBD3FB695A1CFA613A68D27AC5
:1007000007F120010B4403F8182C3B68197B07F113
:100710000802FB6913440A461A707B681D4607F1FC
:1007200008040FCC28606960AA60EB6023782B7402
:1007300078682437BD46B0BC7047000080B582B0F1
:1007400000AF7860064B186879687B681B7C9AB2AA
:100750000A2301F038F800BF0837BD4680BD00BF4E
:10076000A000002080B584B000AF184B9B69174AE9
:1007700043F001039361154B9B6903F00103BB60D8
:10078000BB68124BDB69114A43F08053D3610F4BB6
:10079000DB6903F080537B607B6800220F216FF0E0
:1007A000010000F0CCF90A4B5B68FB60FB6823F0AA
:1007B000E063FB60FB6843F08063FB60044AFB6816
:1007C000536000BF1037BD4680BD00BF001002401F
:1007D0000000014080B588B000AF786007F11003D9
:1007E00000221A605A609A60DA607B681B681B4AB4
:1007F00093422FD11A4BDB69194A43F40033D3617A
:10080000174BDB6903F40033FB60FB68144B9B69F7
:10081000134A43F004039361114B9B6903F00403F3
:10082000BB60BB6804233B6102237B610323FB6144
:1008300007F1100319460B4800F0AAF908233B61A1
:1008400000237B610023BB6107F1100319460548B3
:1008500000F09EF900BF2037BD4680BD0044004037
:10086000001002400008014080B400AFFEE780B4F1
:1008700000AFFEE780B400AFFEE780B400AFFEE754
:1008800080B400AFFEE780B400AF00BFBD4680BCBF
:10089000704780B500AF00F07BF803F023F9034602
:1008A000012B01D003F080FE00BF80BD80B400AFFB
:1008B00000BFBD4680BC70470C480D490D4A00235F
:1008C00002E0D458C4500433C4188C42F9D30A4A05
:1008D0000A4C002301E013600432A242FBD3FFF76D
:1008E000E5FF04F0BBF8FFF71DFD70470000002096
:1008F00084000020E04B000884000020641A0020DF
:10090000FEE7000080B500AF084B1B68074A43F0C4
:1009100010031360032000F007F90F2000F008F81F
:10092000FFF720FF0023184680BD00BF00200240D3
:1009300080B582B000AF7860124B1A68124B1B78FA
:1009400019464FF47A73B3FBF1F3B2FBF3F3184695
:1009500000F011F90346002B01D001230EE07B6863
:100960000F2B0AD8002279684FF0FF3000F0E7F82B
:10097000064A7B681360002300E00123184608370D
:10098000BD4680BD740000207C000020780000205F
:1009900080B400AF054B1B781A46054B1B68134407
:1009A000034A136000BFBD4680BC70477C00002036
:1009B000201A002080B400AF024B1B681846BD46C9
:1009C00080BC7047201A002080B485B000AF7860EA
:1009D0007B6803F00703FB600C4BDB68BB60BA6805
:1009E0004FF6FF031340BB60FB681A02BB6813435A
:1009F00043F0BF6343F40033BB60044ABB68D36079
:100A000000BF1437BD4680BC704700BF00ED00E05A
:100A100080B400AF044BDB681B0A03F007031846E1
:100A2000BD4680BC704700BF00ED00E080B483B0DD
:100A300000AF03463960FB7197F90730002B0ADBE2
:100A40003B68DAB20C4997F907301201D2B20B4475
:100A500083F800230AE03B68DAB20849FB7903F027
:100A60000F03043B1201D2B20B441A7600BF0C37BD
:100A7000BD4680BC704700BF00E100E000ED00E033
:100A800080B489B000AFF860B9607A60FB6803F0A9
:100A90000703FB61FB69C3F10703042B28BF042391
:100AA000BB61FB690433062B02D9FB69033B00E001
:100AB00000237B614FF0FF32BB6902FA03F3DA4394
:100AC000BB681A407B699A404FF0FF317B6901FA9D
:100AD00003F3D9437B680B40134318462437BD46C4
:100AE00080BC704780B582B000AF78607B68013B06
:100AF000B3F1807F01D301230FE00A4A7B68013BF9
:100B000053600F214FF0FF30FFF790FF054B00229D
:100B10009A60044B07221A60002318460837BD4626
:100B200080BD00BF10E000E080B582B000AF78600B
:100B30007868FFF749FF00BF0837BD4680BD80B524
:100B400086B000AF0346B9607A60FB7300237B6117
:100B5000FFF75EFF78617A68B9687869FFF790FF00
:100B6000024697F90F3011461846FFF75FFF00BFA6
:100B70001837BD4680BD80B582B000AF7860786818
:100B8000FFF7B0FF034618460837BD4680BD00009A
:100B900080B48BB000AF7860396000237B620023A3
:100BA0003B6269E101227B6A02FA03F3FB613B6865
:100BB0001B68FA691340BB61BA69FB699A4240F04D
:100BC00058813B685B689A4A93425ED0984A934248
:100BD00075D8984A934258D0964A93426FD8964A0D
:100BE000934252D0944A934269D8944A93424CD04B
:100BF000924A934263D8924A934246D0904A934293
:100C00005DD8122B2AD8122B59D801A252F823F002
:100C10008B0C0008650C0008770C0008B90C000864
:100C2000BF0C0008BF0C0008BF0C0008BF0C000878
:100C3000BF0C0008BF0C0008BF0C0008BF0C000868
:100C4000BF0C0008BF0C0008BF0C0008BF0C000858
:100C5000BF0C00086D0C0008810C0008794A934213
:100C600013D02CE03B68DB683B6229E03B68DB6823
:100C700004333B6224E03B68DB6808333B621FE0DF
:100C80003B68DB680C333B621AE03B689B68002BD7
:100C900002D104233B6213E03B689B68012B05D122
:100CA00008233B627B68FA691A6109E008233B620A
:100CB0007B68FA695A6103E000233B6200E000BFF1
:100CC000BB69FF2B01D87B6801E07B6804337B6143
:100CD000BB69FF2B02D87B6A9B0002E07B6A083B62
:100CE0009B003B617B691A680F213B6901FA03F3A2
:100CF000DB431A40396A3B6901FA03F31A437B6903
:100D00001A603B685B6803F08053002B00F0B180F1
:100D10004D4B9B694C4A43F0010393614A4B9B69DD
:100D200003F00103BB60BB68484A7B6A9B0802333F
:100D300052F82330FB607B6A03F003039B000F2211
:100D400002FA03F3DB43FA681340FB607B68404A16
:100D5000934213D07B683F4A93420DD07B683E4A52
:100D6000934207D07B683D4A934201D1032306E0BA
:100D7000042304E0022302E0012300E000237A6A56
:100D800002F0030292009340FA681343FB602F497C
:100D90007B6A9B080233FA6841F823203B685B6852
:100DA00003F48033002B06D02D4B1A682C49BB6905
:100DB00013430B6006E02A4B1A68BB69DB432849E2
:100DC00013400B603B685B6803F40033002B06D0D4
:100DD000234B5A682249BB6913434B6006E0204B02
:100DE0005A68BB69DB431E4913404B603B685B6834
:100DF00003F48013002B06D0194B9A681849BB697D
:100E000013438B6006E0164B9A68BB69DB431449B9
:100E100013408B603B685B6803F40013002B21D008
:100E20000F4BDA680E49BB691343CB6021E000BF6A
:100E300000003210000031100000221000002110CC
:100E400000001210000011100010024000000140CC
:100E500000080140000C0140001001400014014056
:100E6000000401400B4BDA68BB69DB4309491340BE
:100E7000CB607B6A01337B623B681A687B6A22FA2B
:100E800003F3002B7FF48EAE00BF00BF2C37BD46AE
:100E900080BC70470004014080B485B000AF78602A
:100EA0000B467B807B689A687B881340002B02D0BE
:100EB0000123FB7301E00023FB73FB7B184614370F
:100EC000BD4680BC704780B483B000AF78600B46ED
:100ED0007B8013467B707B78002B03D07A887B68FD
:100EE0001A6103E07B881A047B681A6100BF0C3723
:100EF000BD4680BC7047000080B586B000AF78600A
:100F00007B68002B01D101236CE27B681B6803F036
:100F10000103002B00F08780924B5B6803F00C0309
:100F2000042B0CD08F4B5B6803F00C03082B12D101
:100F30008C4B5B6803F48033B3F5803F0BD1894B56
:100F40001B6803F40033002B6CD07B685B68002BBC
:100F500068D1012346E27B685B68B3F5803F06D128
:100F6000804B1B687F4A43F4803313602EE07B681C
:100F70005B68002B0CD17B4B1B687A4A23F48033CF
:100F80001360784B1B68774A23F4802313601DE0BD
:100F90007B685B68B3F5A02F0CD1724B1B68714A5C
:100FA00043F4802313606F4B1B686E4A43F4803315
:100FB00013600BE06B4B1B686A4A23F480331360A9
:100FC000684B1B68674A23F4802313607B685B6867
:100FD000002B13D0FFF7EEFC386108E0FFF7EAFCC6
:100FE00002463B69D31A642B01D90323FAE15D4B16
:100FF0001B6803F40033002BF0D014E0FFF7DAFC99
:10100000386108E0FFF7D6FC02463B69D31A642B2F
:1010100001D90323E6E1534B1B6803F40033002B93
:10102000F0D100E000BF7B681B6803F00203002BD7
:1010300063D04C4B5B6803F00C03002B0BD0494B87
:101040005B6803F00C03082B1CD1464B5B6803F470
:101050008033002B16D1434B1B6803F00203002B97
:1010600005D07B681B69012B01D00123BAE13D4B00
:101070001B6823F0F8027B685B69DB003949134386
:101080000B603AE07B681B69002B20D0364B0122B5
:101090001A60FFF78FFC386108E0FFF78BFC02460F
:1010A0003B69D31A022B01D903239BE12D4B1B680B
:1010B00003F00203002BF0D02A4B1B6823F0F80248
:1010C0007B685B69DB00274913430B6015E0264B07
:1010D00000221A60FFF76EFC386108E0FFF76AFC37
:1010E00002463B69D31A022B01D903237AE11D4B37
:1010F0001B6803F00203002BF0D17B681B6803F030
:101100000803002B3AD07B689B69002B19D0174B42
:1011100001221A60FFF74EFC386108E0FFF74AFC35
:1011200002463B69D31A022B01D903235AE10D4B26
:101130005B6A03F00203002BF0D0012000F0D8FA24
:101140001CE00A4B00221A60FFF734FC38610FE004
:10115000FFF730FC02463B69D31A022B08D9032360
:1011600040E100BF001002400000424280044242C1
:101170009E4B5B6A03F00203002BE9D17B681B687E
:1011800003F00403002B00F0A6800023FB75974BAF
:10119000DB6903F08053002B0DD1944BDB69934A3C
:1011A00043F08053D361914BDB6903F08053BB6004
:1011B000BB680123FB758E4B1B6803F48073002B07
:1011C00018D18B4B1B688A4A43F480731360FFF776
:1011D000F1FB386108E0FFF7EDFB02463B69D31AEB
:1011E000642B01D90323FDE0814B1B6803F480735A
:1011F000002BF0D07B68DB68012B06D17B4B1B6A90
:101200007A4A43F0010313622DE07B68DB68002B10
:101210000CD1764B1B6A754A23F001031362734BA2
:101220001B6A724A23F0040313621CE07B68DB68CC
:10123000052B0CD16D4B1B6A6C4A43F004031362FF
:101240006A4B1B6A694A43F0010313620BE0674B68
:101250001B6A664A23F001031362644B1B6A634AEC
:1012600023F0040313627B68DB68002B15D0FFF7C3
:10127000A1FB38610AE0FFF79DFB02463B69D31AE8
:1012800041F28832934201D90323ABE0574B1B6AEA
:1012900003F00203002BEED014E0FFF78BFB386164
:1012A0000AE0FFF787FB02463B69D31A41F2883216
:1012B000934201D9032395E04C4B1B6A03F00203D0
:1012C000002BEED1FB7D012B05D1484BDB69474A52
:1012D00023F08053D3617B68DB69002B00F08180B1
:1012E000424B5B6803F00C03082B61D07B68DB6921
:1012F000022B46D13F4B00221A60FFF75BFB38619F
:1013000008E0FFF757FB02463B69D31A022B01D9CD
:10131000032367E0354B1B6803F00073002BF0D10B
:101320007B681B6AB3F5803F08D1304B5B6823F4C0
:1013300000327B689B682D4913434B602B4B5B68E5
:1013400023F474127B68196A7B685B6A0B43274934
:1013500013434B60274B01221A60FFF72BFB3861C8
:1013600008E0FFF727FB02463B69D31A022B01D99D
:10137000032337E01D4B1B6803F00073002BF0D0F4
:101380002FE01C4B00221A60FFF714FB386108E0C5
:10139000FFF710FB02463B69D31A022B01D9032346
:1013A00020E0124B1B6803F00073002BF0D118E013
:1013B0007B68DB69012B01D1012313E00B4B5B68D8
:1013C000FB60FB6803F480327B681B6A9A4206D19B
:1013D000FB6803F470127B685B6A9A4201D00123B8
:1013E00000E0002318461837BD4680BD00100240BB
:1013F000007000406000424280B584B000AF786069
:1014000039607B68002B01D10123D0E06A4B1B6857
:1014100003F007033A689A4210D9674B1B6823F020
:10142000070265493B6813430B60634B1B6803F07D
:1014300007033A689A4201D00123B8E07B681B6831
:1014400003F00203002B20D07B681B6803F0040329
:10145000002B05D0594B5B68584A43F4E063536056
:101460007B681B6803F00803002B05D0534B5B68B7
:10147000524A43F460535360504B5B6823F0F002D0
:101480007B689B684D4913434B607B681B6803F086
:101490000103002B40D07B685B68012B07D1474BD1
:1014A0001B6803F40033002B15D101237FE07B6818
:1014B0005B68022B07D1414B1B6803F00073002BC4
:1014C00009D1012373E03D4B1B6803F00203002B9D
:1014D00001D101236BE0394B5B6823F003027B6889
:1014E0005B68364913434B60FFF764FAF8600AE023
:1014F000FFF760FA0246FB68D31A41F28832934242
:1015000001D9032353E02D4B5B6803F00C027B6889
:101510005B689B009A42EBD1274B1B6803F00703E3
:101520003A689A4210D2244B1B6823F007022249E2
:101530003B6813430B60204B1B6803F007033A68BA
:101540009A4201D0012332E07B681B6803F0040358
:10155000002B08D0194B5B6823F4E0627B68DB68E2
:10156000164913434B607B681B6803F00803002B8C
:1015700009D0124B5B6823F460527B681B69DB0067
:101580000E4913434B6000F021F802460B4B5B6899
:101590001B0903F00F030A49CB5C22FA03F3094A43
:1015A0001360094B1B681846FFF7C2F90023184661
:1015B0001037BD4680BD00BF002002400010024031
:1015C000C04B0008740000207800002090B48AB05E
:1015D00000AF2A4B3C1D0FCB84E80F0040F20123E3
:1015E0003B800023FB610023BB6100237B6200235F
:1015F0007B6100233B62224B5B68FB61FB6903F06C
:101600000C03042B02D0082B03D02DE01D4B3B62B2
:101610002DE0FB699B0C03F00F0307F12802134434
:1016200013F8243C7B61FB6903F48033002B13D057
:10163000134B5B685B0C03F0010307F128021344B2
:1016400013F8283CBB617B690E4A02FB03F2BB69BD
:10165000B2FBF3F37B6204E07B690B4A02FB03F30A
:101660007B627B6A3B6202E0064B3B6200BF3B6AE7
:1016700018462837BD4690BC704700BF144B000881
:101680000010024000127A0000093D0080B400AF53
:10169000024B1B681846BD4680BC70477400002092
:1016A00080B500AFFFF7F2FF0246054B5B681B0AEF
:1016B00003F007030349CB5C22FA03F3184680BD0D
:1016C00000100240D04B000880B500AFFFF7DEFFEE
:1016D0000246054B5B68DB0A03F007030349CB5C5A
:1016E00022FA03F3184680BD00100240D04B0008D8
:1016F00080B485B000AF78600A4B1B680A4AA2FB31
:1017000003235B0A7A6802FB03F3FB6000BFFB68FC
:101710005A1EFA60002BF9D100BF00BF1437BD4636
:1017200080BC704774000020D34D621080B582B039
:1017300000AF78607B68002B01D101233FE07B681C
:1017400093F83D30DBB2002B06D17B68002283F892
:101750003C207868FFF73EF87B68242283F83D2020
:101760007B681B68DA687B681B6822F40052DA60C9
:10177000786800F005F97B681B681A697B681B684C
:1017800022F490421A617B681B685A697B681B6867
:1017900022F02A025A617B681B68DA687B681B6842
:1017A00042F40052DA607B6800221A647B682022CF
:1017B00083F83D207B68202283F83E2000231846D2
:1017C0000837BD4680BD80B58AB002AFF860B96009
:1017D0003B601346FB8000237B61FB6893F83D3040
:1017E000DBB2202B7CD1BB68002B02D0FB88002B06
:1017F00001D1012375E0FB6893F83C30012B01D146
:1018000002236EE0FB68012283F83C20FB68002283
:101810001A64FB68212283F83D20FFF7CBF878613A
:10182000FB68FA889A84FB68FA88DA84FB689B680C
:10183000B3F5805F08D1FB681B69002B04D100233E
:10184000FB61BB68BB6103E0BB68FB610023BB615C
:10185000FB68002283F83C202AE03B6800937B6908
:1018600000228021F86800F040F80346002B01D0E8
:10187000032336E0FB69002B0BD1BB691B881A469A
:10188000FB681B68C2F308025A60BB690233BB6184
:1018900007E0FB691A78FB681B685A60FB69013333
:1018A000FB61FB68DB8C9BB2013B9AB2FB68DA847C
:1018B000FB68DB8C9BB2002BCFD13B6800937B692C
:1018C00000224021F86800F010F80346002B01D0F8
:1018D000032306E0FB68202283F83D20002300E07C
:1018E000022318462037BD4680BD80B584B000AFC6
:1018F000F860B9603B601346FB712CE0BB69B3F143
:10190000FF3F28D0BB69002B07D0FFF753F80246F2
:101910003B68D31ABA699A421DD2FB681B68DA6821
:10192000FB681B6822F4D072DA60FB681B685A6996
:10193000FB681B6822F001025A61FB68202283F8D1
:101940003D20FB68202283F83E20FB68002283F8BC
:101950003C2003230FE0FB681B681A68BB68134038
:10196000BA689A420CBF01230023DBB21A46FB7906
:101970009A42C3D0002318461037BD4680BD0000F0
:1019800080B584B000AF78607B681B681B6923F466
:1019900040517B68DA687B681B680A431A617B6880
:1019A0009A687B681B691A437B685B691343BB6059
:1019B0007B681B68DB6823F4B05323F00C037A6860
:1019C0001268B9680B43D3607B681B685B6923F4BA
:1019D00040717B689A697B681B680A435A617B681F
:1019E0001B682C4A934203D1FFF76EFEF86002E0B9
:1019F000FFF756FEF860FA6813469B0013449A00FE
:101A00001A447B685B689B00B2FBF3F3224AA2FB9B
:101A100003235B091901FA6813469B0013449A00DB
:101A20001A447B685B689B00B2FBF3F21A4BA3FB82
:101A300002035B09642000FB03F3D31A1B0132335A
:101A4000154AA2FB03235B0903F0F0031944FA686B
:101A500013469B0013449A001A447B685B689B0002
:101A6000B2FBF3F20C4BA3FB02035B09642000FB07
:101A700003F3D31A1B013233074AA2FB03235B098A
:101A800003F00F027B681B680A449A6000BF10379E
:101A9000BD4680BD003801401F85EB5180B485B044
:101AA00000AFEFF30583BB60BB68002B0FD1EFF3F2
:101AB00010837B607B68002B09D1104B1B68022BC5
:101AC00009D1EFF311833B603B68002B03D06FF02B
:101AD0000503FB600CE0094B1B68002B05D1074B8D
:101AE00001221A600023FB6002E04FF0FF33FB602D
:101AF000FB6818461437BD4680BC7047A400002020
:101B000080B584B000AFEFF30583BB60BB68002BEA
:101B10000FD1EFF310837B607B68002B09D1114B51
:101B20001B68022B09D1EFF311833B603B68002B4C
:101B300003D06FF00503FB600EE00A4B1B68012B1E
:101B400007D1084B02221A6001F080FB0023FB60E2
:101B500002E04FF0FF33FB60FB6818461037BD46CC
:101B600080BD00BFA400002080B592B004AFF86033
:101B7000B9607A6000237B61EFF305837B627B6A47
:101B8000002B40F09480EFF310833B623B6A002B04
:101B900040F08D80484B1B68022B06D1EFF3118378
:101BA000FB61FB69002B40F08280FB68002B7ED03C
:101BB00080233B631823FB620023FB7607F11B03A2
:101BC0007B634FF0FF33BB627B68002B45D07B68A3
:101BD0001B68002B02D07B681B687B637B689B695A
:101BE000002B02D07B689B69FB62FB6A002B08D04C
:101BF000FB6A382B05D87B685B6803F00103002B78
:101C000001D0002354E07B685B69002B03D07B6824
:101C10005B699B083B637B689B68002B0ED07B68ED
:101C2000DB685B2B0AD97B681B69002B06D07B68BD
:101C30005B69002B02D00123BB6210E07B689B68CC
:101C4000002B0CD17B68DB68002B08D17B681B69FB
:101C5000002B04D10023BB6201E00023BB62BB6AFE
:101C6000012B10D17B681B697A68926802920193FC
:101C7000FB6A0093BB683A6B796BF86801F078F8FF
:101C800003467B6113E0BB6A002B10D13B6B9AB219
:101C900007F114030193FB6A0093BB68796BF86842
:101CA00001F0C2F80346012B01D000237B617B6960
:101CB00018463837BD4680BDA400002080B588B0E6
:101CC00000AF786039607B68BB61EFF305837B61AF
:101CD0007B69002B0FD1EFF310833B613B69002B35
:101CE00009D1134B1B68022B09D1EFF31183FB6061
:101CF000FB68002B03D06FF00503FB6113E0BB69A9
:101D0000002B05D03B68002B02DD3B68382B03DD40
:101D10006FF00303FB6106E00023FB613B6819469B
:101D2000B86901F0F1F9FB6918462037BD4680BD5E
:101D3000A400002080B586B000AF7860EFF3058383
:101D40003B613B69002B0FD1EFF31083FB60FB6815
:101D5000002B09D10D4B1B68022B09D1EFF3118326
:101D6000BB60BB68002B03D06FF005037B6107E00D
:101D700000237B617B68002B02D0786801F090F92A
:101D80007B6918461837BD4680BD00BFA4000020FF
:101D900080B58CB002AFF860B9607A6000237B62D6
:101DA000EFF30583BB61BB69002B6FD1EFF31083A9
:101DB0007B617B69002B69D1374B1B68022B05D1F6
:101DC000EFF311833B613B69002B5FD1FB68002B74
:101DD0005CD0BB68002B59D04FF0FF333B627B686F
:101DE000002B29D07B689B68002B12D07B68DB68B6
:101DF0004F2B0ED97B681B69002B0AD07B685A6970
:101E0000FB68B96801FB03F39A4202D301233B62EA
:101E100014E07B689B68002B10D17B68DB68002B8B
:101E20000CD17B681B69002B08D17B685B69002B98
:101E300004D100233B6201E000233B623B6A012B9B
:101E40000BD17B681A697B689B6800210091B96897
:101E5000F86800F053FA786208E03B6A002B05D17D
:101E60000022B968F86800F0C0FA78627B6A002B3B
:101E70000CD07B68002B03D07B681B68FB6101E002
:101E80000023FB61F969786A00F016FF7B6A184647
:101E90002837BD4680BD00BFA400002080B58AB0B1
:101EA00000AFF860B9603B601346FB71FB683B62B2
:101EB00000237B62EFF30583FB61FB69002B0FD1ED
:101EC000EFF31083BB61BB69002B09D12B4B1B685F
:101ED000022B2ED1EFF311837B617B69002B28D07D
:101EE0003B6A002B05D0BB68002B02D03B68002B5F
:101EF00003D06FF003037B6239E000233B6107F1FD
:101F000010020023B968386A00F0CEFB0346012BAB
:101F100003D06FF002037B6229E03B69002B26D0DF
:101F2000174B4FF080521A60BFF34F8FBFF36F8F84
:101F30001DE03B6A002B02D0BB68002B03D16FF081
:101F400003037B6214E000233A68B968386A00F042
:101F5000ADFA0346012B0BD03B68002B03D06FF08A
:101F600001037B6204E06FF002037B6200E000BFCC
:101F70007B6A18462837BD4680BD00BFA4000020FC
:101F800004ED00E080B58AB000AFF860B9607A6017
:101F90003B60FB683B6200237B62EFF30583FB61E0
:101FA000FB69002B0FD1EFF31083BB61BB69002BE2
:101FB00009D12B4B1B68022B2ED1EFF311837B61D0
:101FC0007B69002B28D03B6A002B05D0BB68002B17
:101FD00002D03B68002B03D06FF003037B6238E034
:101FE00000233B6107F110031A46B968386A00F014
:101FF000D3FC0346012B03D06FF002037B6228E081
:102000003B69002B25D0174B4FF080521A60BFF36D
:102010004F8FBFF36F8F1CE03B6A002B02D0BB6871
:10202000002B03D16FF003037B6213E03A68B968B9
:10203000386A00F0D1FB0346012B0BD03B68002B24
:1020400003D06FF001037B6204E06FF002037B6258
:1020500000E000BF7B6A18462837BD4680BD00BF40
:10206000A400002004ED00E080B485B000AFF8606B
:10207000B9607A60FB68064A1A60BB68054A1A6054
:102080007B6880221A6000BF1437BD4680BC704751
:10209000A80000200401002080B485B000AFF860E3
:1020A000B9607A60FB68074A1A60BB68064A1A6022
:1020B0007B684FF480721A6000BF1437BD4680BC45
:1020C000704700BF040300206003002080B483B089
:1020D00000AF78607B6803F108027B685A607B6818
:1020E0004FF0FF329A607B6803F108027B68DA6088
:1020F0007B6803F108027B681A617B6800221A6022
:1021000000BF0C37BD4680BC704780B483B000AFC1
:1021100078607B6800221A6100BF0C37BD4680BC26
:10212000704780B485B000AF786039607B685B68C9
:10213000FB603B68FA685A60FB689A683B689A6083
:10214000FB689B683A685A60FB683A689A603B682B
:102150007A681A617B681B685A1C7B681A6000BF2A
:102160001437BD4680BC704780B485B000AF78603E
:1021700039603B681B68BB60BB68B3F1FF3F03D1AC
:102180007B681B69FB600CE07B680833FB6002E046
:10219000FB685B68FB60FB685B681B68BA689A4217
:1021A000F6D2FB685A683B685A603B685B683A68DD
:1021B0009A603B68FA689A60FB683A685A603B68C4
:1021C0007A681A617B681B685A1C7B681A6000BFBA
:1021D0001437BD4680BC704780B485B000AF7860CE
:1021E0007B681B69FB607B685B687A6892689A60B1
:1021F0007B689B687A6852685A60FB685B687A689B
:102200009A4203D17B689A68FB685A607B68002217
:102210001A61FB681B685A1EFB681A60FB681B6822
:1022200018461437BD4680BC7047000080B584B0A6
:1022300000AF786039607B68FB60FB68002B0AD1D7
:102240004FF0500383F31188BFF36F8FBFF34F8FAD
:10225000BB6000BFFEE702F029F9FB681A68FB6863
:10226000DB6BF968096C01FB03F31A44FB685A60E5
:10227000FB6800229A63FB681A68FB689A60FB6837
:102280001A68FB68DB6B013BF968096C01FB03F31F
:102290001A44FB68DA60FB68FF2283F84420FB687D
:1022A000FF2283F845203B68002B14D1FB681B6993
:1022B000002B1AD0FB681033184601F051FA034680
:1022C000002B12D00C4B4FF080521A60BFF34F8F8F
:1022D000BFF36F8F09E0FB6810331846FFF7F6FE77
:1022E000FB6824331846FFF7F1FE02F00FF90123D3
:1022F00018461037BD4680BD04ED00E080B58EB0B5
:1023000002AFF860B9607A603B60FB68002B0AD1CD
:102310004FF0500383F31188BFF36F8FBFF34F8FDC
:10232000BB6200BFFEE73B68002B0AD14FF05003B1
:1023300083F31188BFF36F8FBFF34F8F7B6200BFB2
:10234000FEE77B68002B02D0BB68002B01D0012385
:1023500000E00023002B0AD14FF0500383F31188D3
:10236000BFF36F8FBFF34F8F3B6200BFFEE77B6809
:10237000002B02D1BB68002B01D1012300E0002318
:10238000002B0AD14FF0500383F31188BFF36F8FF6
:10239000BFF34F8FFB6100BFFEE750237B617B697A
:1023A000502B0AD04FF0500383F31188BFF36F8F87
:1023B000BFF34F8FBB6100BFFEE73B68FB62FB6A68
:1023C000002B0DD0FB6A012283F8462097F83820B5
:1023D000FB6A009313467A68B968F86800F043F81E
:1023E000FB6A18463037BD4680BD80B58AB002AF63
:1023F000F860B9601346FB71FB68002B0AD14FF0FF
:10240000500383F31188BFF36F8FBFF34F8F3B618E
:1024100000BFFEE7BB68002B02D10023FB6104E094
:10242000FB68BA6802FB03F3FB61FB695033184693
:1024300002F03CF9B861BB69002B0FD0BB69503387
:102440007B61BB69002283F84620FA79BB6900935F
:1024500013467A69B968F86800F005F8BB69184650
:102460002037BD4680BD80B584B000AFF860B9604C
:102470007A60FB70BB68002B03D1BB69BA691A6034
:1024800002E0BB697A681A60BB69FA68DA63BB6903
:10249000BA681A640121B869FFF7C8FEBB69FA7807
:1024A00083F84C2000BF1037BD4680BD80B58EB08C
:1024B00000AFF860B9607A603B6000237B63FB6823
:1024C0003B633B6B002B0AD14FF0500383F3118821
:1024D000BFF36F8FBFF34F8FBB6200BFFEE7BB68D8
:1024E000002B03D13B6B1B6C002B01D1012300E0BF
:1024F0000023002B0AD14FF0500383F31188BFF360
:102500006F8FBFF34F8F7B6200BFFEE73B68022BEC
:1025100003D13B6BDB6B012B01D1012300E00023D6
:10252000002B0AD14FF0500383F31188BFF36F8F54
:10253000BFF34F8F3B6200BFFEE701F0D3FA0346C3
:10254000002B02D17B68002B01D1012300E0002386
:10255000002B0AD14FF0500383F31188BFF36F8F24
:10256000BFF34F8FFB6100BFFEE701F09FFF3B6BA6
:102570009A6B3B6BDB6B9A4202D33B68022B29D1EF
:102580003A68B968386B00F087FAF8623B6B5B6AAF
:10259000002B10D03B6B2433184601F0E1F80346C2
:1025A000002B13D03F4B4FF080521A60BFF34F8F78
:1025B000BFF36F8F0AE0FB6A002B07D0394B4FF057
:1025C00080521A60BFF34F8FBFF36F8F01F09EFFF1
:1025D000012363E07B68002B03D101F097FF002308
:1025E0005CE07B6B002B06D107F11403184601F069
:1025F0001BF901237B6301F089FF00F08DFE01F0E0
:1026000055FF3B6B93F844305BB2B3F1FF3F03D10E
:102610003B6B002283F844203B6B93F845305BB260
:10262000B3F1FF3F03D13B6B002283F8452001F05B
:102630006DFF3A1D07F114031146184601F00AF91F
:102640000346002B24D1386B00F01EFB0346002B01
:1026500018D03B6B10337A681146184601F030F8F9
:10266000386B00F0A9FA00F065FE0346002B7FF4FA
:102670007CAF0C4B4FF080521A60BFF34F8FBFF30B
:102680006F8F72E7386B00F097FA00F053FE6CE73B
:10269000386B00F091FA00F04DFE002318463837F1
:1026A000BD4680BD04ED00E080B58EB000AFF8609F
:1026B000B9607A603B60FB683B633B6B002B0AD1DF
:1026C0004FF0500383F31188BFF36F8FBFF34F8F29
:1026D0007B6200BFFEE7BB68002B03D13B6B1B6C2A
:1026E000002B01D1012300E00023002B0AD14FF081
:1026F000500383F31188BFF36F8FBFF34F8F3B629B
:1027000000BFFEE73B68022B03D13B6BDB6B012B69
:1027100001D1012300E00023002B0AD14FF0500328
:1027200083F31188BFF36F8FBFF34F8FFB6100BF3F
:10273000FEE701F07DFFEFF311824FF0500383F3CA
:102740001188BFF36F8FBFF34F8FBA617B61BB6995
:10275000FB623B6B9A6B3B6BDB6B9A4202D33B6831
:10276000022B2CD13B6B93F8453087F82B303A681D
:10277000B968386B00F090F997F92B30B3F1FF3F4F
:1027800012D13B6B5B6A002B16D03B6B243318468F
:1027900000F0E6FF0346002B0ED07B68002B0BD029
:1027A0007B6801221A6007E097F82B300133DBB217
:1027B0005AB23B6B83F8452001237B6301E0002381
:1027C0007B63FB6A3B613B6983F3118800BF7B6BD2
:1027D00018463837BD4680BD80B58CB000AFF86074
:1027E000B9607A600023FB62FB68BB62BB6A002BA6
:1027F0000AD14FF0500383F31188BFF36F8FBFF3FB
:102800004F8F3B6200BFFEE7BB68002B03D1BB6A62
:102810001B6C002B01D1012300E00023002B0AD107
:102820004FF0500383F31188BFF36F8FBFF34F8FC7
:10283000FB6100BFFEE701F055F90346002B02D112
:102840007B68002B01D1012300E00023002B0AD17B
:102850004FF0500383F31188BFF36F8FBFF34F8F97
:10286000BB6100BFFEE701F021FEBB6A9B6B7B6290
:102870007B6A002B1FD0B968B86A00F077F97B6AD1
:102880005A1EBB6A9A63BB6A1B69002B0FD0BB6AD6
:102890001033184600F064FF0346002B07D03D4B71
:1028A0004FF080521A60BFF34F8FBFF36F8F01F06C
:1028B0002DFE012369E07B68002B03D101F026FE89
:1028C000002362E0FB6A002B06D107F110031846D3
:1028D00000F0AAFF0123FB6201F018FE00F01CFDCE
:1028E00001F0E4FDBB6A93F844305BB2B3F1FF3F03
:1028F00003D1BB6A002283F84420BB6A93F84530B9
:102900005BB2B3F1FF3F03D1BB6A002283F84520DD
:1029100001F0FCFD3A1D07F110031146184600F0C6
:1029200099FF0346002B23D1B86A00F097F90346BC
:10293000002B17D0BB6A24337A681146184600F082
:10294000BFFEB86A00F038F900F0F4FC0346002B33
:1029500089D1104B4FF080521A60BFF34F8FBFF3F5
:102960006F8F80E7B86A00F027F900F0E3FC7AE7A0
:10297000B86A00F021F900F0DDFCB86A00F06EF9E9
:102980000346002B3FF46FAF002318463037BD4697
:1029900080BD00BF04ED00E080B58EB000AFF860F0
:1029A000B9607A60FB683B633B6B002B0AD14FF048
:1029B000500383F31188BFF36F8FBFF34F8F3B62D8
:1029C00000BFFEE7BB68002B03D13B6B1B6C002BE9
:1029D00001D1012300E00023002B0AD14FF0500366
:1029E00083F31188BFF36F8FBFF34F8FFB6100BF7D
:1029F000FEE701F01DFEEFF311824FF0500383F369
:102A00001188BFF36F8FBFF34F8FBA617B61BB69D2
:102A1000FB623B6B9B6BBB62BB6A002B2FD03B6B9B
:102A200093F8443087F82730B968386B00F09EF887
:102A3000BB6A5A1E3B6B9A6397F92730B3F1FF3F8D
:102A400012D13B6B1B69002B16D03B6B1033184621
:102A500000F086FE0346002B0ED07B68002B0BD0C7
:102A60007B6801221A6007E097F827300133DBB258
:102A70005AB23B6B83F8442001237B6301E00023BF
:102A80007B63FB6A3B613B6983F3118800BF7B6B0F
:102A900018463837BD4680BD80B586B000AFF860B7
:102AA000B9607A6000237B61FB689B6B3B61FB68CC
:102AB0001B6C002B0DD1FB681B68002B4DD1FB68F4
:102AC0005B68184601F02CF87861FB6800225A60B8
:102AD00043E07B68002B19D1FB689868FB681B6C8E
:102AE0001A46B96801F0DEFFFB689A68FB681B6C48
:102AF0001A44FB689A60FB689A68FB685B689A42B4
:102B00002BD3FB681A68FB689A6026E0FB68D868DC
:102B1000FB681B6C1A46B96801F0C4FFFB68DA68F1
:102B2000FB681B6C5B421A44FB68DA60FB68DA687E
:102B3000FB681B689A4207D2FB685A68FB681B6CEB
:102B40005B421A44FB68DA607B68022B05D13B6963
:102B5000002B02D03B69013B3B613B695A1CFB687F
:102B60009A637B6918461837BD4680BD80B582B030
:102B700000AF786039607B681B6C002B18D07B68D5
:102B8000DA687B681B6C1A447B68DA607B68DA68F9
:102B90007B685B689A4203D37B681A687B68DA605B
:102BA0007B68D9687B681B6C1A46386801F07AFF2D
:102BB00000BF0837BD4680BD80B584B000AF7860E7
:102BC00001F074FC7B6893F84530FB7311E07B687F
:102BD0005B6A002B12D07B682433184600F0C0FDDE
:102BE0000346002B01D000F097FEFB7B013BDBB2DC
:102BF000FB7397F90F30002BE9DC00E000BF7B6826
:102C0000FF2283F8452001F081FC01F04FFC7B6836
:102C100093F84430BB7311E07B681B69002B12D022
:102C20007B681033184600F09BFD0346002B01D053
:102C300000F072FEBB7B013BDBB2BB7397F90E3039
:102C4000002BE9DC00E000BF7B68FF2283F8442012
:102C500001F05CFC00BF1037BD4680BD80B584B07C
:102C600000AF786001F022FC7B689B6B002B02D1E7
:102C70000123FB6001E00023FB6001F047FCFB68DF
:102C800018461037BD4680BD80B584B000AF78606F
:102C900001F00CFC7B689A6B7B68DB6B9A4202D17B
:102CA0000123FB6001E00023FB6001F02FFCFB68C7
:102CB00018461037BD4680BD80B485B000AF78603F
:102CC00039600023FB6014E00E4AFB6852F8333091
:102CD000002B0BD10B49FB683A6841F83320094AB5
:102CE000FB68DB0013447A685A6006E0FB68013336
:102CF000FB60FB68072BE7D900BF00BF1437BD4658
:102D000080BC7047241A002080B586B000AFF86000
:102D1000B9607A60FB687B6101F0C8FB7B6993F85E
:102D200044305BB2B3F1FF3F03D17B69002283F8EB
:102D300044207B6993F845305BB2B3F1FF3F03D188
:102D40007B69002283F8452001F0E0FB7B699B6BE7
:102D5000002B06D17B6924337A68B968184600F0E5
:102D6000D3FC7869FFF728FF00BF1837BD4680BD48
:102D700080B58EB004AFF860B9607A603B607B6B61
:102D8000002B0AD14FF0500383F31188BFF36F8FEC
:102D9000BFF34F8F3B6200BFFEE7BB6B002B0AD136
:102DA0004FF0500383F31188BFF36F8FBFF34F8F42
:102DB000FB6100BFFEE75C233B613B695C2B0AD0F3
:102DC0004FF0500383F31188BFF36F8FBFF34F8F22
:102DD000BB6100BFFEE7BB6B002B1ED07B6B002BE3
:102DE0001BD0BB6B7B627B6A7A6B1A637B6A0222A5
:102DF00083F85920002303937B6A029307F114039D
:102E000001933B6B00933B687A68B968F86800F0FF
:102E100050F8786A00F0D4F801E000237B617B6908
:102E200018462837BD4680BD80B58CB004AFF86029
:102E3000B9603B601346FB80FB889B00184601F09D
:102E400035FC78617B69002B0ED05C2001F02EFCF4
:102E5000F861FB69002B03D0FB697A691A6305E00E
:102E6000786901F0E7FC01E00023FB61FB69002BBE
:102E700017D0FB69002283F85920FA8800230393B6
:102E8000FB690293FB6A0193BB6A00933B68B968D4
:102E9000F86800F00EF8F86900F092F80123BB61C1
:102EA00002E04FF0FF33BB61BB6918462037BD46D7
:102EB00080BD80B588B000AFF860B9607A603B60D3
:102EC0003B6B186B7B689B001A46A52101F0F8FD4F
:102ED0003B6B1A6B7B6803F18043013B9B001344FF
:102EE000BB61BB6923F00703BB61BB6903F0070348
:102EF000002B0AD04FF0500383F31188BFF36F8F7C
:102F0000BFF34F8F7B6100BFFEE70023FB6112E040
:102F1000BA68FB69134419783A6BFB69134434337C
:102F20000A461A70BA68FB6913441B78002B06D056
:102F3000FB690133FB61FB690F2BE9D900E000BF9E
:102F40003B6B002283F84320BB6A372B01D9372320
:102F5000BB623B6BBA6ADA623B6BBA6ADA643B6BA0
:102F600000221A653B6B04331846FFF7CEF83B6B23
:102F700018331846FFF7C9F83B6B3A6B1A61BB6A06
:102F8000C3F138023B6B9A613B6B3A6B5A623B6B05
:102F900000225A653B6B002283F858203A68F96892
:102FA000B86901F091F902463B6B1A60FB6A002B8D
:102FB00002D0FB6A3A6B1A6000BF2037BD4680BD65
:102FC00080B582B000AF786001F070FA2D4B1B68BD
:102FD00001332C4A13602C4B1B68002B09D12A4A61
:102FE0007B681360274B1B68012B10D100F0B8FCE5
:102FF0000DE0264B1B68002B09D1234B1B68DA6AB6
:103000007B68DB6A9A4202D81F4A7B681360204BB8
:103010001B6801331E4A13601D4B1A687B685A6493
:103020007B68DA6A1B4B1B689A4203D97B68DB6AB0
:10303000184A13607B68DA6A13469B0013449B00AE
:10304000154A1A447B68043319461046FFF769F89D
:1030500001F05CFA0D4B1B68002B0ED00A4B1B686D
:10306000DA6A7B68DB6A9A4207D20C4B4FF08052D7
:103070001A60BFF34F8FBFF36F8F00BF0837BD4695
:1030800080BD00BF340C002060070020400C0020F1
:10309000500C00203C0C00206407002004ED00E0F0
:1030A00080B584B000AF78600023FB607B68002BA4
:1030B00017D0134B1B68002B0AD04FF0500383F33B
:1030C0001188BFF36F8FBFF34F8FBB6000BFFEE768
:1030D00000F022F90021786800F090FD00F02AF954
:1030E000F860FB68002B07D1064B4FF080521A6046
:1030F000BFF34F8FBFF36F8F00BF1037BD4680BD4A
:103100005C0C002004ED00E080B588B000AF786072
:1031100039600023FB613B68372B0AD94FF050031D
:1031200083F31188BFF36F8FBFF34F8FFB6000BF36
:10313000FEE73B68372B01D937233B6001F0B6F936
:103140007B68002B02D13D4B1B6800E07B68BB61B4
:10315000BB69DB6C7B617A693B689A4268D03A68EC
:103160007B699A420DD9354B1B68BA699A420FD0D8
:10317000324B1B68DB6A3A689A4209D30123FB6130
:1031800006E02E4B1B68BA699A4201D10123FB610C
:10319000BB69DB6A3B61BB69DA6CBB69DB6A9A427B
:1031A00002D1BB693A68DA62BB693A68DA64BB6922
:1031B0009B69002B04DB3B68C3F13802BB699A6151
:1031C000BB6959693A6913469B0013449B001C4A2A
:1031D0001344994201D1012300E00023002B1CD0AD
:1031E000BB6904331846FEF7F7FFBB69DA6A154B73
:1031F0001B689A4203D9BB69DB6A124A1360BB6938
:10320000DA6A13469B0013449B000D4A1A44BB69BB
:10321000043319461046FEF784FFFB69002B07D0E4
:10322000094B4FF080521A60BFF34F8FBFF36F8F7F
:1032300001F06CF900BF2037BD4680BD600700205B
:10324000640700203C0C002004ED00E080B58AB04B
:1032500004AF0023BB6000237B603A46391D07F1B1
:1032600008031846FEF700FF39687B68BA680292C7
:1032700001930023009300230A4621492148FFF7C8
:1032800077FD0346204A13601F4B1B68002B02D0BA
:1032900001237B6101E000237B617B69012B02D16B
:1032A00000F000FD78617B69012B16D14FF05003CF
:1032B00083F31188BFF36F8FBFF34F8F3B6100BF64
:1032C000124B4FF0FF321A60114B01221A60114B62
:1032D00000221A6001F078F80EE07B69B3F1FF3F3D
:1032E0000AD14FF0500383F31188BFF36F8FBFF300
:1032F0004F8FFB6000BFFEE700BF1837BD4680BDA3
:10330000244B000831390008580C0020540C0020D0
:10331000400C0020380C002080B400AF044B1B6828
:103320000133034A136000BFBD4680BC704700BF35
:103330005C0C002080B584B000AF0023FB6000234C
:10334000BB60424B1B68002B0AD14FF0500383F344
:103350001188BFF36F8FBFF34F8F3B6000BFFEE755
:1033600001F0A4F8394B1B68013B384A1360374B16
:103370001B68002B62D1364B1B68002B5ED02FE000
:10338000344BDB68DB68FB60FB6818331846FEF7DC
:1033900023FFFB6804331846FEF71EFFFB68DA6A5A
:1033A0002D4B1B689A4203D9FB68DB6A2A4A1360DB
:1033B000FB68DA6A13469B0013449B00274A1A44B1
:1033C000FB68043319461046FEF7ABFEFB68DA6A69
:1033D000234B1B68DB6A9A4202D3224B01221A60FC
:1033E0001C4B1B68002BCBD1FB68002B01D000F0DD
:1033F00055FB1D4B1B687B607B68002B10D000F0D9
:1034000045F80346002B02D0164B01221A607B6858
:10341000013B7B607B68002BF1D1134B00221A60CB
:10342000104B1B68002B09D00123BB600F4B4FF0E2
:1034300080521A60BFF34F8FBFF36F8F01F066F8B1
:10344000BB6818461037BD4680BD00BF5C0C00202D
:10345000340C0020F40B00203C0C002064070020FA
:1034600060070020480C0020440C002004ED00E020
:1034700080B483B000AF044B1B687B607B68184648
:103480000C37BD4680BC7047380C002080B586B034
:1034900000AF00237B61514B1B68002B40F08E80F6
:1034A0004F4B1B6801333B614D4A3B6913603B69DD
:1034B000002B20D14B4B1B681B68002B0AD04FF010
:1034C000500383F31188BFF36F8FBFF34F8F3B60BF
:1034D00000BFFEE7434B1B68FB60434B1B68414A40
:1034E0001360414AFB681360404B1B6801333F4A3D
:1034F000136000F0D3FA3E4B1B683A699A424ED3F0
:10350000384B1B681B68002B01D1012300E000230E
:10351000002B04D0364B4FF0FF321A603FE0314BA6
:103520001B68DB68DB68BB60BB685B687B603A6913
:103530007B689A4203D22E4A7B6813602FE0BB68F7
:1035400004331846FEF748FEBB689B6A002B04D084
:10355000BB6818331846FEF73FFEBB68DA6A254B96
:103560001B689A4203D9BB68DB6A224A1360BB68B6
:10357000DA6A13469B0013449B001F4A1A44BB6837
:10358000043319461046FEF7CCFDBB68DA6A1B4BC4
:103590001B68DB6A9A42B3D301237B61B0E7174B08
:1035A0001B68DA6A144913469B0013449B000B44C2
:1035B0001B68012B07D901237B6104E0104B1B68BA
:1035C00001330F4A13600F4B1B68002B01D00123FE
:1035D0007B617B6918461837BD4680BD5C0C0020B6
:1035E000380C0020EC0B0020F00B00204C0C0020CD
:1035F000540C00203C0C00206407002060070020D1
:10360000440C0020480C002080B485B000AF274B4C
:103610001B68002B03D0264B01221A6041E0244B8B
:1036200000221A60234B1B68FB6010E0FB68002B34
:103630000AD14FF0500383F31188BFF36F8FBFF3AC
:103640004F8F7B6000BFFEE7FB68013BFB601A49C0
:10365000FA6813469B0013449B000B441B68002B25
:10366000E4D0FA6813469B0013449B00124A1344AB
:10367000BB60BB685B685A68BB685A60BB685A68C5
:10368000BB6808339A4204D1BB685B685A68BB6860
:103690005A60BB685B68DB68084A1360054AFB68D0
:1036A000136000BF1437BD4680BC70475C0C00201F
:1036B000480C00203C0C002064070020600700201C
:1036C00080B584B000AF786039607B68002B0AD188
:1036D0004FF0500383F31188BFF36F8FBFF34F8F09
:1036E000FB6000BFFEE7074B1B681833194678687C
:1036F000FEF73AFD0121386800F080FA00BF10376C
:10370000BD4680BD6007002080B586B000AFF86080
:10371000B9607A60FB68002B0AD14FF0500383F345
:103720001188BFF36F8FBFF34F8F7B6100BFFEE740
:103730000A4B1B6818331946F868FEF7F2FC7B68E1
:10374000002B02D04FF0FF33BB607968B86800F0FF
:1037500055FA00BF1837BD4680BD00BF6007002086
:1037600080B586B000AF78607B68DB68DB683B6162
:103770003B69002B0AD14FF0500383F31188BFF34C
:103780006F8FBFF34F8FFB6000BFFEE73B691833BD
:103790001846FEF721FD1E4B1B68002B1DD13B690F
:1037A00004331846FEF718FD3B69DA6A194B1B68AB
:1037B0009A4203D93B69DB6A164A13603B69DA6AAD
:1037C00013469B0013449B00134A1A443B6904337D
:1037D00019461046FEF7A5FC05E03B69183319466B
:1037E0000E48FEF79EFC3B69DA6A0D4B1B68DB6AEC
:1037F0009A4205D901237B610A4B01221A6001E03C
:1038000000237B617B6918461837BD4680BD00BF29
:103810005C0C00203C0C002064070020F40B00200E
:1038200060070020480C002080B483B000AF7860AF
:10383000064B1A687B681A60054B1A687B685A60E9
:1038400000BF0C37BD4680BC704700BF4C0C002049
:10385000380C002080B588B000AF786039607B6894
:10386000002B0AD14FF0500383F31188BFF36F8F01
:10387000BFF34F8F3B6100BFFEE73B68002B0AD1CF
:103880004FF0500383F31188BFF36F8FBFF34F8F57
:10389000FB6000BFFEE700F009FE1D4B1B68BB612B
:1038A0007B685B68BA69D31A7B613B681B68B3F1BC
:1038B000FF3F02D10023FB6123E07B681A68154BB0
:1038C0001B689A4207D07B685B68BA699A4202D348
:1038D0000123FB6115E03B681B687A699A420BD2B1
:1038E0003B681A687B69D21A3B681A607868FFF7F0
:1038F0009BFF0023FB6104E03B6800221A60012368
:10390000FB6100F003FEFB6918462037BD4680BD11
:10391000380C00204C0C002080B400AF034B012277
:103920001A6000BFBD4680BC704700BF480C002035
:1039300080B582B000AF786000F052F8064B1B688B
:10394000012BF9D9054B4FF080521A60BFF34F8F0E
:10395000BFF36F8FF0E700BF6407002004ED00E0C5
:1039600080B582B000AF00237B600CE07A6813461C
:103970009B0013449B00124A13441846FEF7A6FB13
:103980007B6801337B607B68372BEFD90D48FEF7EE
:103990009DFB0D48FEF79AFB0C48FEF797FB0C4881
:1039A000FEF794FB0B48FEF791FB0B4B054A1A60A0
:1039B0000A4B054A1A6000BF0837BD4680BD00BFEC
:1039C00064070020C40B0020D80B0020F40B00205B
:1039D000080C0020200C0020EC0B0020F00B002035
:1039E00080B582B000AF19E000F060FD104BDB68DD
:1039F000DB687B607B6804331846FEF7EDFB0D4BFC
:103A00001B68013B0B4A13600B4B1B68013B0A4AC6
:103A1000136000F07BFD786800F010F8064B1B681F
:103A2000002BE1D100BF00BF0837BD4680BD00BFFD
:103A3000080C0020340C00201C0C002080B584B041
:103A400000AF78607B6893F85930002B08D17B6811
:103A50001B6B184600F0EEFE786800F0EBFE18E0F5
:103A60007B6893F85930012B03D1786800F0E2FEAF
:103A70000FE07B6893F85930022B0AD04FF05003C7
:103A800083F31188BFF36F8FBFF34F8FFB6000BFCD
:103A9000FEE700BF1037BD4680BD000080B483B094
:103AA00000AF0E4B1B681B68002B01D1012300E007
:103AB0000023002B04D00A4B4FF0FF321A6008E0BD
:103AC000064B1B68DB68DB687B607B685B68044ACD
:103AD000136000BF0C37BD4680BC7047EC0B002064
:103AE000540C002080B483B000AF0B4B1B68002B3C
:103AF00002D101237B6008E0084B1B68002B02D138
:103B000002237B6001E000237B607B6818460C3752
:103B1000BD4680BC704700BF400C00205C0C0020FC
:103B200080B586B000AF78607B683B6100237B6125
:103B30007B68002B56D02E4B1B683A699A420AD0FC
:103B40004FF0500383F31188BFF36F8FBFF34F8F94
:103B5000FB6000BFFEE73B691B6D002B0AD14FF0F5
:103B6000500383F31188BFF36F8FBFF34F8FBB6098
:103B700000BFFEE73B691B6D5A1E3B691A653B6936
:103B8000DA6A3B69DB6C9A422CD03B691B6D002BD7
:103B900028D13B6904331846FEF71EFB3B69DA6CFB
:103BA0003B69DA623B69DB6AC3F138023B699A61BF
:103BB0003B69DA6A0F4B1B689A4203D93B69DB6A9F
:103BC0000C4A13603B69DA6A13469B0013449B005E
:103BD000094A1A443B69043319461046FEF7A1FA14
:103BE00001237B617B6918461837BD4680BD00BF45
:103BF000600700203C0C00206407002080B584B0E2
:103C000000AF78603960214B1B68FB60204B1B685C
:103C100004331846FEF7E0FA7B68B3F1FF3F0AD1A0
:103C20003B68002B07D01A4B1B6804331946194810
:103C3000FEF777FA26E0FA687B681344BB60144B02
:103C40001B68BA685A60BA68FB689A4209D2124B7C
:103C50001A680F4B1B68043319461046FEF784FAA6
:103C600010E00E4B1A680A4B1B68043319461046C5
:103C7000FEF77AFA0A4B1B68BA689A4202D2084ADF
:103C8000BB68136000BF1037BD4680BD380C0020F4
:103C900060070020200C0020F00B0020EC0B00201F
:103CA000540C002080B58AB004AF00237B6100F083
:103CB000CBFA1C4B1B68002B21D00023FB60002398
:103CC000BB603A1D07F1080107F10C031846FEF727
:103CD000E3F97968BB68FA680292019302230093C2
:103CE00000230A4610491148FFF742F80346104ADC
:103CF00013600F4B1B68002B01D001237B617B6994
:103D0000002B0AD14FF0500383F31188BFF36F8F5C
:103D1000BFF34F8F3B6100BFFEE77B691846183742
:103D2000BD4680BD900C00202C4B0008513E000881
:103D3000940C002080B58AB000AFF860B9607A605A
:103D40003B6000237B62FB68002B0AD14FF05003DD
:103D500083F31188BFF36F8FBFF34F8F3B6200BFB8
:103D6000FEE71A4B1B68002B2AD0BB683B617B68BF
:103D70007B61FB68BB61BB68052B18DCFFF7B2FEFB
:103D80000346022B09D1114B186807F110010023DB
:103D90003A6BFEF78BFB786212E00C4B186807F168
:103DA000100100230022FEF781FB786208E0074B38
:103DB000186807F1100100233A68FEF775FC786275
:103DC0007B6A18462837BD4680BD00BF900C002096
:103DD00080B588B002AF786039601C4B1B68DB6827
:103DE000DB687B617B6904331846FEF7F5F97B6974
:103DF000DB69012B22D17B699A697B68D1187B68CA
:103E00003A68786900F0C8F80346002B16D0002302
:103E1000009300237A6800217869FFF78BFF3861EF
:103E20003B69002B0AD14FF0500383F31188BFF395
:103E30006F8FBFF34F8FFB6000BFFEE77B695B6A4C
:103E40007869984700BF1837BD4680BD880C0020B0
:103E500080B584B000AF786007F10803184600F021
:103E600057F8F860BB681946F86800F003F800F0EE
:103E7000D5F8F1E780B584B000AF78603960FFF71E
:103E80004BFA07F10803184600F066F8F860BB68C3
:103E9000002B30D13B68002B0AD17A68FB689A422C
:103EA00006D8FFF747FAF9687868FFF791FF24E032
:103EB0003B68002B08D0134B1B681B68002B0CBF02
:103EC00001230023DBB23B600F4B18687A68FB6864
:103ED000D31A3A681946FEF717FFFFF72BFA034685
:103EE000002B0AD1094B4FF080521A60BFF34F8F5D
:103EF000BFF36F8F01E0FFF71DFA00BF1037BD461B
:103F000080BD00BF8C0C0020900C002004ED00E070
:103F100080B485B000AF78600E4B1B681B68002B27
:103F20000CBF01230023DBB21A467B681A607B6852
:103F30001B68002B05D1074B1B68DB681B68FB6007
:103F400001E00023FB60FB6818461437BD4680BCC7
:103F5000704700BF880C002080B584B000AF786047
:103F6000FFF786FAF8600B4B1B68FA689A4205D295
:103F700000F008F97B6801221A6002E07B680022E9
:103F80001A60044AFB681360FB6818461037BD4688
:103F900080BD00BF980C002080B586B000AFF860EF
:103FA000B9607A603B6000237B61FB68BA685A6045
:103FB000FB68FA681A61BA687B689A4212D87A6814
:103FC0003B68D21AFB689B699A4202D301237B614A
:103FD0001BE0104B1A68FB68043319461046FEF7C5
:103FE000C3F812E07A683B689A4206D2BA683B6826
:103FF0009A4202D301237B6107E0074B1A68FB68F2
:10400000043319461046FEF7AFF87B691846183797
:10401000BD4680BD8C0C0020880C002080B58EB081
:1040200002AF9DE07B68002B18DA3B1D0433FB6276
:10403000FB6A002B0AD14FF0500383F31188BFF3C2
:104040006F8FBFF34F8FFB6100BFFEE7FB6A1B68FA
:10405000FA6A5068FA6A9268114698477B68002BA2
:104060007DDBFB68BB62BB6A5B69002B04D0BB6A6B
:1040700004331846FEF7B0F83B461846FFF76CFFCE
:1040800078627B68092B6BD801A252F823F000BF3D
:10409000B9400008B9400008B94000086141000873
:1040A000154100084D410008B9400008B94000081A
:1040B0006141000815410008BA68BB6A9B69D118C4
:1040C000BB687A6AB86AFFF767FF0346002B47D0E0
:1040D000BB6A5B6AB86A9847BB6ADB69012B3FD150
:1040E000BA68BB6A9B691A4400230093002300212D
:1040F000B86AFFF71FFE38623B6A002B30D14FF0E1
:10410000500383F31188BFF36F8FBFF34F8FBB61F1
:1041100000BFFEE7BA68BB6A9A61BB6A9B69002B65
:104120000AD14FF0500383F31188BFF36F8FBFF3B1
:104130004F8F7B6100BFFEE7BB6A9A697B6AD1182B
:104140007B6A7A6AB86AFFF727FF09E0BB6A93F8CF
:104150002C30002B04D1B86A00F06CFB00E000BFEB
:10416000074B1B68391D00221846FEF735FB034636
:10417000002B7FF457AF00BF00BF3037BD4680BD76
:10418000900C002080B588B002AF45E02C4B1B6836
:10419000DB681B683B612A4B1B68DB68DB68FB60E4
:1041A000FB6804331846FEF717F8FB685B6AF8688B
:1041B0009847FB68DB69012B2ED1FB689B693A6944
:1041C0001344BB60BA683B699A420ED9FB68BA686F
:1041D0005A60FB68FA681A61194B1A68FB68043365
:1041E00019461046FDF7C0FF16E000230093002398
:1041F0003A690021F868FFF79DFD78607B68002B25
:104200000AD14FF0500383F31188BFF36F8FBFF3D0
:104210004F8F3B6000BFFEE7094B1B681B68002BFC
:10422000B4D1074B1B687B61064B1B68044A1360C3
:10423000044A7B69136000BF1837BD4680BD00BFCC
:10424000880C00208C0C002080B582B002AF00F0FA
:104250002DF9154B1B68002B20D11448FDF736FFB4
:104260001348FDF733FF134B104A1A60124B104AE4
:104270001A6000230093114B114A10210A20FEF707
:104280003DF80346084A1360074B1B68002B05D016
:10429000054B1B680B491846FEF70EFD00F036F97A
:1042A00000BFBD4680BD00BF900C0020600C002008
:1042B000740C0020880C00208C0C00203C0D002089
:1042C0009C0C0020344B000880B485B000AFF8602F
:1042D000B9607A60FB68043BFB60FB684FF080725A
:1042E0001A60FB68043BFB60BB6823F00102FB68BB
:1042F0001A60FB68043BFB60084AFB681A60FB68B5
:10430000143BFB607A68FB681A60FB68203BFB602B
:10431000FB6818461437BD4680BC7047214300082F
:1043200080B485B000AF00237B60124B1B68B3F1F3
:10433000FF3F0AD04FF0500383F31188BFF36F8F14
:10434000BFF34F8FFB6000BFFEE74FF0500383F3D6
:104350001188BFF36F8FBFF34F8FBB6000BF00BFEB
:104360007B68002BFCD000BF00BF1437BD4680BC6B
:10437000704700BF80000020000000000000000027
:10438000074B19680868B0E8F00F80F30988BFF39D
:104390006F8F4FF0000080F311884EF00D0E7047C4
:1043A0006007002000BF00BF06480068006880F377
:1043B000088862B661B6BFF34F8FBFF36F8F00DF1F
:1043C00000BF00BF08ED00E080B584B000AF324B05
:1043D000FB60FB681B78DBB27B60FB68FF221A7016
:1043E000FB681B78DBB2FB70FB78DBB203F0500399
:1043F000DAB22A4B1A702A4B07221A6009E0284BBE
:104400001B68013B264A1360FB78DBB25B00DBB222
:10441000FB70FB78DBB203F08003802BEFD0204BE6
:104420001B68C3F10703042B0AD04FF0500383F33A
:104430001188BFF36F8FBFF34F8FBB6000BFFEE7E4
:10444000174B1B681B02164A1360154B1B6803F4BD
:10445000E063134A13607B68DAB2FB681A70114B91
:104460001B68104A43F4700313600E4B1B680D4A1F
:1044700043F07043136000F0B9F80B4B00221A6050
:10448000FFF792FFFFF7C0F8FFF74AFF0023184637
:104490001037BD4680BD00BF00E400E08C0D002059
:1044A000900D002020ED00E08000002080B483B05B
:1044B00000AF4FF0500383F31188BFF36F8FBFF34A
:1044C0004F8F7B6000BF0F4B1B6801330D4A136099
:1044D0000C4B1B68012B0FD10B4B1B68DBB2002B65
:1044E0000AD04FF0500383F31188BFF36F8FBFF3EF
:1044F0004F8F3B6000BFFEE700BF0C37BD4680BC5E
:10450000704700BF8000002004ED00E080B483B05D
:1045100000AF114B1B68002B0AD14FF0500383F3FF
:104520001188BFF36F8FBFF34F8F7B6000BFFEE733
:10453000094B1B68013B084A1360074B1B68002BA3
:1045400005D100233B603B6883F3118800BF00BFA7
:104550000C37BD4680BC7047800000200000000082
:10456000EFF30980BFF36F8F0D4B1A6820E9F00F4E
:1045700010602DE908404FF0500080F31188FFF7DC
:1045800043F84FF0000080F31188BDE80840196837
:104590000868B0E8F00F80F30988BFF36F8F7047A9
:1045A0006007002000BF00BF80B582B000AF4FF0B1
:1045B000500383F31188BFF36F8FBFF34F8F7B607E
:1045C00000BFFEF763FF0346002B03D0064B4FF0FE
:1045D00080521A6000233B603B6883F3118800BF60
:1045E00000BF0837BD4680BD04ED00E080B400AFD9
:1045F0000A4B00221A600A4B00221A60094B1B6802
:10460000094AA2FB03235B09084A013B1360034BE1
:1046100007221A6000BFBD4680BC704710E000E072
:1046200018E000E0740000201F85EB5114E000E06A
:1046300080B485B000AFEFF30583FB60FB680F2B00
:1046400014D9164AFB6813441B78FB72144B1B7871
:10465000FA7A9A420AD24FF0500383F31188BFF3DB
:104660006F8FBFF34F8F7B6000BFFEE70D4B1B6862
:1046700003F4E0620C4B1B689A420AD94FF05003D6
:1046800083F31188BFF36F8FBFF34F8F3B6000BF81
:10469000FEE700BF1437BD4680BC7047F0E300E082
:1046A0008C0D00200CED00E0900D002080B58AB04C
:1046B00000AF78600023FB61FEF72EFE584B1B68AD
:1046C000002B01D100F010F9564B1A687B6813409B
:1046D000002B40F08E807B68002B1DD008227B6869
:1046E00013447B607B6803F00703002B14D07B68C6
:1046F00023F0070308337B607B6803F00703002B7C
:104700000AD04FF0500383F31188BFF36F8FBFF3CC
:104710004F8F7B6100BFFEE77B68002B69D0424B67
:104720001B687A689A4264D8404B3B623F4B1B68D7
:104730007B6204E07B6A3B627B6A1B687B627B6A0C
:104740005B687A689A4203D97B6A1B68002BF1D1B7
:10475000334B1B687A6A9A424BD03B6A1B6808222B
:104760001344FB617B6A1A683B6A1A607B6A5A6869
:104770007B68D21A08235B009A421FD97A6A7B6849
:104780001344BB61BB6903F00703002B0AD04FF051
:10479000500383F31188BFF36F8FBFF34F8F3B61DB
:1047A00000BFFEE77B6A5A687B68D21ABB695A6011
:1047B0007B6A7A685A60B86900F0F8F81A4B1A6890
:1047C0007B6A5B68D31A184A1360174B1A68184B38
:1047D0001B689A4203D2144B1B68154A13607B6A0C
:1047E0005A68104B1B681A437B6A5A607B6A002226
:1047F0001A60FEF79FFDFB6903F00703002B0AD048
:104800004FF0500383F31188BFF36F8FBFF34F8FC7
:10481000FB6000BFFEE7FB6918462837BD4680BD38
:104820009C190020A8190020A0190020941900202C
:10483000A419002080B586B000AF78607B687B61EA
:104840007B68002B48D008235B427A6913447B6164
:104850007B693B613B695A68214B1B681340002B05
:104860000AD14FF0500383F31188BFF36F8FBFF36A
:104870004F8FFB6000BFFEE73B691B68002B0AD02F
:104880004FF0500383F31188BFF36F8FBFF34F8F47
:10489000BB6000BFFEE73B695A68114B1B681340C1
:1048A000002B19D03B691B68002B15D13B695A6856
:1048B0000B4B1B68DB431A403B695A60FEF72CFD2B
:1048C0003B695A68074B1B681344064A13603869F2
:1048D00000F06CF8FEF72EFD00BF1837BD4680BD16
:1048E000A8190020A019002080B485B000AF4FF4B3
:1048F0004063BB60274BFB60FB6803F00703002BA2
:104900000CD0FB680733FB60FB6823F00703FB60F8
:10491000BA68FB68D31A1F4A1344BB60FB687B600C
:104920001D4A7B6813601C4B00225A607B68BA6882
:104930001344FB600822FB689B1AFB60FB6823F0B2
:104940000703FB60FB68154A1360144B1B680022C9
:104950005A60124B1B6800221A607B683B603B6800
:10496000FA68D21A3B685A600C4B1A683B681A60A6
:104970003B685B680A4A13603B685B68094A1360DE
:10498000094B4FF000421A6000BF1437BD4680BC8F
:10499000704700BF940D0020941900209C1900203E
:1049A000A4190020A0190020A819002080B485B007
:1049B00000AF7860274BFB6002E0FB681B68FB6080
:1049C000FB681B687A689A42F7D8FB68BB60FB6893
:1049D0005B68BA6813447A689A4208D1FB685A68DF
:1049E0007B685B681A44FB685A60FB687B607B6885
:1049F000BB607B685B68BA681A44FB681B689A42B4
:104A000018D1FB681A68144B1B689A420DD07B685A
:104A10005A68FB681B685B681A447B685A60FB68CD
:104A20001B681A687B681A6008E00B4B1A687B6881
:104A30001A6003E0FB681A687B681A60FA687B6892
:104A40009A4202D0FB687A681A6000BF1437BD46EC
:104A500080BC7047941900209C19002070B5002676
:104A60000C4D0D4C641BA410A64209D100F030F887
:104A700000260A4D0A4C641BA410A64205D170BD45
:104A800055F8043B98470136EEE755F8043B984744
:104A90000136F2E7D84B0008D84B0008D84B000885
:104AA000DC4B00080A44914200F1FF3300D170470B
:104AB00010B511F8014B914203F8014FF9D110BD27
:104AC00003460244934200D1704703F8011BF9E703
:104AD000F8B500BFF8BC08BC9E467047F8B500BFEB
:084AE000F8BC08BC9E467047BB
:104AE80064656661756C745461736B0072733438F5
:104AF800355F7461736B000062746E5F7461736B11
:104B080000000000636D645F71000000020304058B
:104B1800060708090A0B0C0D0E0F101049444C45E6
:104B280000000000546D722053766300546D72517A
:104B380000000000E84A0008000000000000000033
:104B48000000000000000000000200001800000043
:104B58000000000000000000F44A00080000000007
:104B6800000000000000000000000000000200003B
:104B7800310000000000000000000000004B0008A9
:104B8800000000000000000000000000000000001D
:104B980000020000310000000000000000000000DA
:104BA8000C4B00080000000000000000000000009E
:104BB80000000000000000000000000000000000ED
:104BC80001020304060708090000000001020304AB
:044BD800350100089B
:044BDC0011010008BB
:104BE0000105000055000000000004F29A010500D4
:104BF0000155000000000004A35A01050002550001
:104C00000000000004535A01050003550000000095
:104C10000004029A000000000000000000000000F4
:104C20000000000000000000000000000000000084
:104C30000000000000000000000000000000000074
:104C40000000000000000000001000200040008074
:104C5000000800100024F400100000000100000013
:044C6000AAAAAAAAA8
:04000005080008B92E
:00000001FF
